:020000040800F2
:100000006850002029020008C11500088513000867
:10001000BD1500082105000899180008000000001F
:100020000000000000000000000000004116000871
:100030002505000800000000D11500086D16000815
:10004000430200084302000843020008430200087C
:10005000430200084302000843020008430200086C
:10006000430200084302000843020008430200085C
:10007000430200084302000843020008430200084C
:10008000430200084302000843020008430200083C
:10009000430200084302000843020008430200082C
:1000A00043020008511700084302000843020008F9
:1000B000430200084302000843020008430200080C
:1000C00043020008430200084302000843020008FC
:1000D00043020008430200084302000843020008EC
:1000E00043020008430200084302000843020008DC
:1000F00043020008430200084302000843020008CC
:1001000043020008430200084302000843020008BB
:1001100043020008430200084302000843020008AB
:10012000430200084302000843020008430200089B
:10013000430200084302000843020008430200088B
:10014000430200084302000843020008430200087B
:10015000430200084302000843020008430200086B
:10016000430200084302000843020008430200085B
:100170004302000843020008430200080000000098
:10018000430200084302000800F002F800F03CF8C7
:100190000AA090E8000C82448344AAF10107DA45E2
:1001A00001D100F031F8AFF2090EBAE80F0013F0F8
:1001B000010F18BFFB1A43F001031847D83A00009B
:1001C000F83A0000103A24BF78C878C1FAD852072C
:1001D00024BF30C830C144BF04680C6070470000C1
:1001E0000023002400250026103A28BF78C1FBD840
:1001F000520728BF30C148BF0B6070471FB503F0DE
:1002000015FD1FBD10B510BD00F04FF91146FFF7E9
:10021000F5FF01F043FB00F06DF903B4FFF7F2FFC7
:1002200003BC00F075F90000094880470948004701
:10023000FEE7FEE7FEE7FEE7FEE7FEE7FEE7FEE796
:10024000FEE7FEE704480549054A064B70470000F3
:100250003D17000889010008684A00206850002006
:10026000684C0020684C002053EA020C00F06980C2
:100270002DE9F04B4FF00006002B1FBFB3FA83F5BA
:1002800003FA05F424FA05F65E4012BF1643B2FAEB
:1002900082F502FA05F4C5F120051EBF22FA05FC1D
:1002A00044EA0C04203556EA044C4FEA144418BFC3
:1002B000641C4FF000084FF00009904271EB030CF2
:1002C00039D3002919BFB1FA81F701FA07F6B0FA5C
:1002D00080F700FA07F6C7F120071EBF20FA07FCD7
:1002E00046EA0C062037B6FBF4FCA7EB0507103FE7
:1002F00007F01F0BCBF120062CFA06F60CFA0BFBCD
:1003000044BFB3460026202FA4BF5E464FF0000B2B
:100310005BEA060C08BF4FF0010B19EB0B0948EB29
:100320000608ABFB027C06FB02CC0BFB03CCC01B1C
:1003300071EB0C01C1E70B46024641464846BDE859
:10034000F08B13B5084318BF4FF0FF300146AFF3F1
:100350000080BDE81C407047032A40F2308010F056
:10036000030C00F0158011F8013BBCF1020F624450
:1003700098BF11F801CB00F8013B38BF11F8013BE1
:10038000A2F1040298BF00F801CB38BF00F8013B8E
:1003900011F0030300F05780083AC0F0088051F8CC
:1003A000043B083A51F804CBA0E80810F5E7121D09
:1003B0005CBF51F8043B40F8043BAFF30080D20728
:1003C00024BF11F8013B11F801CB48BF11F8012BF4
:1003D00024BF00F8013B00F801CB48BF00F8012B17
:1003E000704702F0FF0343EA032242EA024200F0B0
:1003F00002B84FF0000200B51346944696462039E5
:1004000022BFA0E80C50A0E80C50B1F12001BFF4CD
:10041000F7AF090728BFA0E80C5048BF0CC05DF833
:1004200004EB890028BF40F8042B08BF704748BF81
:1004300020F8022B11F0804F18BF00F8012B7047F5
:1004400070477047704710B5203AC0F00B80B1E894
:100450001850A0E81850B1E81850A0E81850203AF9
:10046000BFF4F5AF5FEA027C24BFB1E81850A0E802
:10047000185044BF18C918C0BDE810405FEA827C1C
:1004800024BF51F8043B40F8043B08BF7047D20733
:1004900028BF31F8023B48BF11F8012B28BF20F8D4
:1004A000023B48BF00F8012B7047754600F02CF85E
:1004B000AE4605006946534620F00700854618B051
:1004C00020B5FFF7BFFEBDE820404FF000064FF01B
:1004D00000074FF000084FF0000BAC46ACE8C00935
:1004E000ACE8C009ACE8C009ACE8C00921F00701DC
:1004F0008D46704710B50446AFF300802046BDE836
:100500001040FFF78ABE000000487047100000202E
:1005100001491820ABBEFEE726000200704700002C
:10052000FEE7000070470000B0B5B3F5804F03460A
:100530001AD153F822C00020CCF6F0700CEA000E5D
:1005400091E83100D1F818C040EA0E0040EA0410EA
:10055000C96840EA052040EA0C0040EA0141002059
:1005600043F82210B0BD00BF6FF07041002043F887
:100570002210B0BD2DE9F04F83B00B68024650F851
:10058000230001F1240B20F0010042F82300D1E9FF
:100590000230D1E900CE01908869D1E9049A029035
:1005A000C86BD1E9077600909BE83008D1F830801D
:1005B00052F82C008021CFF6F07108404EEA03017A
:1005C000082B08BF41F04001019B194341EA090192
:1005D00041EA0A01394331432143294341EA0B01EE
:1005E000029B41EA08011943009B19430143002083
:1005F00042F82C1003B0BDE8F08F0000F0B500EB1E
:1006000082025068D1E902E400F0404CD1E90030A8
:10061000D1E9045643EA0C03002743EA0010CFF661
:10062000F07740EA0E20896907EB055540EA04405F
:100630002843FE36084340EA066100205160F0BDC1
:10064000B0B5044600F0F4F8054640F20000C2F2EE
:1006500000000078611C18BF044400BF00F0E8F8F7
:10066000401BA042FAD3B0BD2DE9F04F82B000F19B
:100670003E4241F6004502F1FF77C4F2020508222E
:100680004FEAB726A84208BF0722072E38BF4FEA15
:10069000B7224FF0010A002400274FF00008009213
:1006A00008E000BF023708F10108202F04F104041C
:1006B00000F0B4800E680AFA08F916EA090FF1D0C2
:1006C000D1F804A00AF0030BABF10106012E17D8F4
:1006D0000322866802FA07FECA6826EA0E06BA40B6
:1006E000324382604268CAF3001522EA090205FA21
:1006F00008F54FEA480C6FEA0E062A4342600BE009
:100700000322BA40D643BBF1030FBC4604D1BC461A
:100710004FF0030B22E000BFC2688D68324005FA3B
:100720000CF52A43BBF1020FC26017D16FF0030230
:1007300002EA5802024404F01C030F25D2F820E01C
:1007400005FA03FA0D692EEA0A0E05FA03F343EAE5
:100750000E031362D1F804A00AF0030B02680BFA2F
:100760000CF332401A431AF4403F4FF0010A026082
:1007700098D0002243F644030192C4F202031A689F
:1007800043F6004E42F480421A601A68C4F2010E29
:1007900002F480420192019A28F003024FF6084CBD
:1007A0007244CFF6FF7C52F80C3004F00C060F2593
:1007B000B540AB43009D05FA06F6334342F80C30D2
:1007C000DEF808204B6842EA090643F60C4CDD02CD
:1007D00058BF22EA0906CEF80860C4F2010CDCF822
:1007E00000209D0242EA090658BF22EA0906CCF819
:1007F0000060DEF804209D0342EA090658BF22EAA1
:100800000906CEF80460DEF80020DB0342EA0906A0
:1008100058BF22EA0906CEF8006043E702B0BDE8FF
:10082000F08F0000002A08BF0904816170470000B2
:1008300044F26830C2F200000068704740F20000E5
:1008400044F26831C2F20000C2F2000100780A6886
:10085000104408607047000080B543F60040C4F2C1
:100860000200016841F400710160016841F4806197
:100870000160016841F480710160032000F0C0F85C
:100880000F2000F005F800F05DF8002080BD0000AA
:10089000B0B586B0002543F644010195C4F20201CB
:1008A0000A68044642F001020A60096801A801F0E2
:1008B000010101910199694600F062F900F080F9A7
:1008C0004DF683614000C4F21B31A0FB01014FF0E3
:1008D000FF3000EB914140F2D0100022C2F2000044
:1008E000C4F2010240F2E733C0E90021C0E902533B
:1008F0000561856100F0F6FB054618B1284606B093
:10090000B0BD00BF40F2D010C2F2000000F01AFCEF
:1009100005460028F2D1192000F036F80F2C0DD82A
:10092000192021460022002500F03EF840F2040084
:10093000C2F200000460284606B0B0BD012528467A
:1009400006B0B0BD82B0002043F640010190C4F271
:1009500002014A6842F480424A604A6802F48042D6
:100960000192019A00900868002240F080500860CF
:1009700008680F2100F08050009000986FF001008F
:1009800002B000F011B80000002848BF704700F026
:100990001F01012202FA01F14EF200124009CEF2CB
:1009A000000242F82010704710B54EF60C5CCEF2F3
:1009B000000CDCF80030C3F3022E8EF00704042C88
:1009C00028BF0424BEF103034FF0FF3E0EFA04F4E7
:1009D00038BF0023A14399400EFA03F39A43114311
:1009E00000F00F02043A624409010C3200F1604346
:1009F000B0F1FF3FC8BF03F56442117010BD0000A5
:100A00004EF60C51CEF200010A684FF6FF031A4071
:100A100060F30A2242F0806040F0FD700860704789
:100A20002DE9F041002800F08B8043F60808C4F25D
:100A300002080446D8F8F8030D4600F00700884283
:100A400007D288F8F853D8F8F80300F00700A84256
:100A500076D12068810717D5410705D5D8F8001051
:100A600041F4E051C8F80010010705D5D8F800108E
:100A700041F46041C8F80010D8F80010A26821F0D5
:100A8000F0011143C8F80010C0073FD1D8F8F803AF
:100A900000F00700A84207D988F8F853D8F8F803FF
:100AA00000F00700A8424BD12068410707D5D8F8CD
:100AB0000010E26821F4E0511143C8F8001000076B
:100AC00008D5D8F80000216920F4604040EAC10050
:100AD000C8F8000000F088F8D8F8001043F6464245
:100AE000C1F30311C0F60002515C40F2080220FA83
:100AF00001F140F20400C2F200000068C2F20002FC
:100B00001160FFF7C5FE0020BDE8F0816068811E1E
:100B1000022907D258F8081C89015CBF0120BDE8F2
:100B2000F08111E0012807D158F8081C89035CBF47
:100B30000120BDE8F08107E058F8081C890703D4BC
:100B40000120BDE8F08100BFD8F8001021F00301BA
:100B50000843C8F80000FFF76BFE064641F28837ED
:100B6000D8F80000616800F00C00B0EB810F8DD068
:100B7000FFF75EFE801BB842F2D90320BDE8F0818A
:100B80000F22026043F60802C4F20202136803F067
:100B900003034360136803F0F0038360136803F4F6
:100BA000E053C360D2F800C04FF4E05303EADC0323
:100BB0000361D2F8F80300F00700086070470000F6
:100BC00040F2080043F60801C2F20000C4F202013C
:100BD0000068096843F65642C1F34231C0F600028C
:100BE000515CC8407047000010B543F60404C4F2DD
:100BF0000204606800F00C0142F200400829C0F2D3
:100C0000F40007D0042918BF10BD41F20020C0F243
:100C10007A0010BD216801F03F0221682368490273
:100C2000C3F3881106D4A1FB00010023FFF71CFBCE
:100C300007E000BF41F20020C0F27A004843B0FB59
:100C4000F2F021680222C1F3014102EB4101B0FB45
:100C5000F1F010BD2DE9F04182B000286AD00446C1
:100C6000007843F60006C007C4F202060BD0B06855
:100C700000F00C00042840F0A1803068800302D509
:100C80006068002856D0207880071AD5B06810F028
:100C90000C0F09D0B06800F00C00082840F0A880C4
:100CA0007068400200F1A4803068800702D5E068D7
:100CB00001283FD13068216920F0F80040EAC100E6
:100CC00030602078000739D4207840074ED4A569D9
:100CD0005DB3B06800F00C00082840F0BD80012D25
:100CE00028D07068E16900F480028A4222D1216A2A
:100CF00000F03F028A421DD147F6C071626A01408E
:100D0000B1EB821F16D1A26A0023CFF6FF7303EB6B
:100D1000C23200F440316FF30F0291420AD1E16A0E
:100D200000F07060B0EB016F04D1002002B0BDE8AC
:100D3000F08100BF012002B0BDE8F08160690028A9
:100D400040F20000C4F2472076D00121C0F8801E96
:100D5000FFF76EFD054600BF706F8007B4D4FFF744
:100D600067FD401B0228F7D9DDE000BF306C10F0B2
:100D700080580AD100200190306C40F080503064DF
:100D8000306C00F080500190019847F20007C4F2E7
:100D900000073868C00541D4386840F48070386076
:100DA000FFF746FD054600BF3868C00536D4FFF79B
:100DB0003FFD401B0228F7D9B5E000BFB06800F046
:100DC0000C00082803D1706840023FF556AF6068F8
:100DD000B0F5803F07D0B0F5A02F40F08D8030688F
:100DE00040F480203060306840F4803030608DE026
:100DF000E068002852D00020C4F2472001210160A1
:100E0000FFF716FD054600BF306880073FF552AF7B
:100E1000FFF70EFD401B0228F6D984E0A0680128E8
:100E200005D005284ED1306F40F004003067306F98
:100E300040F0010030674FE00021C0F8801EFFF74E
:100E4000F7FC0546706F80077FF53EAFFFF7F0FCBB
:100E5000401B0228F6D966E00027C4F2472700208D
:100E60003866FFF7E5FC022D05460BD1306880019E
:100E70005ED5FFF7DDFC401B02284FF00300F5D9DB
:100E800054E700BF306880017FF54FAFFFF7D0FC1B
:100E9000401B02284FF00300F4D947E70020C4F2BA
:100EA000472000210160FFF7C3FC0546306880073A
:100EB0007FF507AFFFF7BCFC401B02284FF0030093
:100EC000F4D933E7316F002821F001013167316F28
:100ED00021F0040131674DD0FFF7AAFC054641F22D
:100EE000883700BF306F800756D4FFF7A1FC401B46
:100EF000B842F7D917E000BF3168002821F48031EB
:100F00003160316821F4802131604FD0FFF790FCCF
:100F1000054600BF306880033FF5B5AEFFF788FC9B
:100F2000401B6428F6D9032002B0BDE8F08100BF61
:100F300004F11C052FCD08430021CFF6FF7140EAD4
:100F4000821001EBC3316FF30F0140EA05600843E3
:100F5000706001203866FFF76BFC04463068800142
:100F60003FF5E3AEFFF764FC001B02284FF00300DF
:100F7000F4D9DBE6FFF75CFC054641F2883700BF99
:100F8000306F800708D5FFF753FC401BB8424FF085
:100F90000300F5D9CAE600BFB8F1000F7FF497AEA1
:100FA000306C20F08050306491E600BFFFF740FCC9
:100FB000054600BF306880037FF565AEFFF738FC5B
:100FC000401B64284FF00300F4D9AFE6002804BFAB
:100FD0000120704770B5044690F8490015460E464A
:100FE00028B9002084F84800204600F01DF8206849
:100FF00004F10801FFF7BEFA2068A2683146FFF746
:10100000FDFAD4E90102236B2946FFF78DFA206827
:10101000A16850F8212042F0010240F8212001206F
:1010200084F84900002070BD2DE9F04786B040F2F9
:10103000C810C2F20000017800294BD14FF001091D
:1010400080F800904FF0000843F63800CDF8048097
:10105000C4F20200016840F6004441F00101016061
:101060000068C4F2020400F00100019001984FF6FC
:10107000807001AD01904FF0020A03260C2704F5A1
:1010800080602946CDE902A904960597FFF7ECFA9E
:1010900044F23370CDE9010A20462946CDE9039692
:1010A0000597FFF7E1FA4FF42040CDE9010A204609
:1010B0002946CDE903860597FFF7D6FA4FF480500D
:1010C000CDE9010A04F540602946CDE9039605976C
:1010D000FFF7CAFA06B0BDE8F087000070470000CD
:1010E00070470000002804BF0120704710B5044677
:1010F00090F83D0028B9002084F83C00204600F01C
:101100001FF8022084F83D002068211D00F026FB16
:10111000012084F8460084F83E0084F83F0084F8FB
:10112000400084F8410084F8420084F8430084F8C9
:10113000440084F8450084F83D00002010BD000004
:101140007047000090F83D1001291CBF0120704736
:10115000022180F83D10006841F2FF72C168C4F2BC
:101160000002904241F00101C1600DDC40F2FF71CC
:10117000C4F20001884215DCB0F1804F2AD040F261
:101180000041C4F2000123E040F2FF31C4F201014A
:10119000884213DC41F60001C4F20001884219D0F4
:1011A000002113E040F60001C4F20001884211D092
:1011B00040F60041C4F200010AE000BF44F2000121
:1011C000C4F20101884205D040F20041C4F201019D
:1011D000884206D1816801F00701062904BF00207A
:1011E0007047016841F00101016000207047000074
:1011F0007047000010B5016804460869800744BFC5
:10120000C8685FEA807039D40869400744BFC8687D
:101210005FEA40703ED40869000744BFC8685FEACF
:10122000007045D40869C00644BFC8685FEAC06062
:101230004AD40869C0071CBFC8685FEAC07051D1B2
:101240000869000644BFC8685FEA006052D40869B4
:10125000400644BFC8685FEA406053D4086980060E
:1012600046BFC8685FEA806010BD6FF0200220466C
:101270000A61BDE81040FFF733BF00BF6FF0020006
:101280000861012020778869800743D02046FFF756
:10129000AFFF45E06FF00400086102202077886905
:1012A00010F4407F40D02046FFF7A2FF42E000BF8D
:1012B0006FF00800086104202077C86980073DD0DE
:1012C0002046FFF795FF3FE06FF01000086108200F
:1012D0002077C86910F4407F3AD02046FFF788FF96
:1012E0003CE000BF6FF001000861204600F03EF8CE
:1012F0002168A5E76FF0800008612046FFF7EEFE49
:101300002168A4E76FF040000861204600F038F83B
:101310002168A3E7204600F025F8204600F024F8D5
:101320002168002020776FE7204600F01BF8204658
:1013300000F01AF82168002020776CE7204600F0C2
:1013400011F8204600F010F821680020207769E7A6
:10135000204600F007F8204600F006F8216800203B
:10136000207766E7704700007047000000680021A2
:10137000C4F20101884208BFFFF760BA704700005D
:1013800070470000FEE70000F0B581B09620FFF73F
:1013900057F900264FF0C044E025C6F208060127A1
:1013A000782025803780FFF74BF9258003257820AA
:1013B0003580FFF745F978202780FFF741F929208C
:1013C0003580208001B0F0BD2DE9F04F83B0B2EB45
:1013D000000C019248BFCCF1000C5D1A00932B4623
:1013E000174648BF6B42019A4FF0FF3E0C9C824269
:1013F00088BF4FF0010EDDF800A085EAE576C6EB68
:10140000E5754FF0FF368A4504FB04F788BF0126D7
:10141000002FACEB0308029642D00D9A4FF47847A8
:101420004FF4FC6407EA122704EA52143C44C2F366
:10143000C40704EB070B0027C6F208074FF0C042B1
:101440002C2451451480A7F800B003D1019A904292
:1014500058D000BFC146B5EB480FBCBF7044A9EBE4
:101460000309029ABCEB480FC8BF11448AB21C465C
:101470004FF0C0434FF02C06C8BFE144C8461E8061
:1014800023465245A7F800B0E4D12E463D46019FC1
:1014900082B2DDF800A0BA422F463546DAD131E0FB
:1014A00004F1FF09002209EB0104C6F20802E4B2CC
:1014B00014804FF0C0422C245145148002D1019A6F
:1014C00090421FD04746B5EB480FBCBF7044FF1A8F
:1014D000BCEB480F029AC8BF1144C8BF6744B84666
:1014E00009EB010700221FFA81FBFFB2C6F20802D6
:1014F0001780D3454FF0C0421480E3D1019A87B2E0
:101500009742DFD103B0BDE8F08F00002DE9F04332
:1015100083B006461044DDE90A9885B21F4630467E
:101520002A460B460C46CDF80090CDF80480FFF714
:101530004BFF381987B2304639462A463B46CDF82C
:101540000090CDF80480FFF73FFF30462146324639
:101550003B46CDF80090CDF80480FFF735FF2846D4
:1015600021462A463B46CDF80090CDF80480FFF78F
:101570002BFF03B0BDE8F083194440F2000C0139A1
:10158000C6F2080CC9B25A43ACF800104FF0C04183
:101590002C20002A088008BF704700984FF478413B
:1015A0004FF4FC6201EA102102EA50121144C0F328
:1015B000C4000844ACF8000070470000FEE70000DB
:1015C000FEE7000000000000000000000000000036
:1015D000EFF30980BFF36F8F154B1A681EF0100FE1
:1015E00008BF20ED108A20E9F04F10602DE90900B6
:1015F0004FF0500080F31188BFF34F8FBFF36F8F10
:1016000001F0D8FC4FF0000080F31188BDE809001C
:1016100019680868B0E8F04F1EF0100F08BFB0EC72
:10162000108A80F30988BFF36F8F704700BF00BF37
:10163000C4000020000000000000000000000000C6
:10164000074B19680868B0E8F04F80F30988BFF3CA
:101650006F8F4FF0000080F31188704700BF00BF0C
:10166000C4000020012000F095FBFBE780B54EF29E
:101670001000CEF20000006802F0EEF8012808BF6A
:1016800080BDBDE8804001F0B5BD0000B0B592B0AE
:10169000002443F64000CDE90A44CDE9084405940E
:1016A000CDE90344CDE901440094C4F2020001688D
:1016B000022541F080510160006800F080500090E8
:1016C000009847F200000094C4F20000016841F461
:1016D000804101600068A82100F4804000900098DB
:1016E000012006904FF4803007904FF480000D9059
:1016F00004200E90119006A80C95CDE90F15FFF768
:10170000A9FA28B1EFF3108072B600BFFEE700BF60
:101710000F20CDE901054FF4A05004904FF4805004
:10172000059001A805210394FFF77AF920B1EFF3A2
:10173000108072B6FEE700BF12B0B0BD4EF6885002
:10174000CEF20000016841F47001016070470000B2
:1017500040F2D010C2F20000FFF74CBD10B540F6C9
:10176000FF3E0368C4F2000E40F2004C7045C4F224
:10177000010C27DCB0F1804F31D040F20042C4F2BE
:10178000000290422BD040F60002C4F200029042C8
:1017900025D041F6FF72C4F20002904229DC704568
:1017A0003CDCB0F1804F5FD040F20042C4F2000256
:1017B000904259D040F60002C4F20002904253D049
:1017C00056E000BF40F60042C4F20002904206D04C
:1017D000604504D00022C4F201029042D9D14A6887
:1017E00023F07003134341F6FF72C4F200029042EB
:1017F000D5DD43F6FF72C4F20102904222DC42F2D0
:101800000002C4F2000290422ED00022C4F2010273
:10181000904229D0604527D02AE000BF40F6004220
:10182000C4F2000290421FD041F60002C4F200024E
:10183000904219D041F60042C4F20002904213D007
:1018400016E000BF44F20002C4F2010290420BD045
:1018500044F60002C4F20102904205D044F2004274
:10186000C4F20102904203D1CA6823F440731343C7
:1018700023F080024B69D1F800E08C681A430260C3
:10188000C46240F48062C0F828E0624504BF096980
:1018900001630121416110BDFEE700008AB0FEF73F
:1018A000DBFFFFF7F3FE002743F6300007970297B0
:1018B000C4F20200016840F2004441F020010160DE
:1018C0000168C4F2020401F020010291029902971A
:1018D000016804F5805541F0800101600168012232
:1018E00001F0800102910299029701684FF4C066ED
:1018F00041F01001016001684FF0010801F0100192
:10190000029102990297016841F0020101600168A9
:1019100001F00201029102990297016841F0080169
:101920000160016801F008010291029902970168C3
:1019300041F001010160016801F001010291029989
:101940000297016841F04001016000684FF4C061F6
:1019500000F04000029002982846FEF763FF204600
:101960004FF4004100224FF40049FEF75BFFCDE940
:10197000036803AE28463146CDE90577FEF774FECD
:1019800020463146CDE90398CDE90577FEF76CFE98
:1019900040F27004C2F200044FF02041204640F8AB
:1019A000041F40F20411CAF2000100F1040C0622E7
:1019B0008CE886004FF48051C0E909710F210DF1C8
:1019C000100C8CE88600112110230392CDE9081732
:1019D00003A90022C0E90473C0E9067707624764DF
:1019E000C0E90B77C0E90D770793FFF7EFFA28B14D
:1019F000EFF3108072B600BFFEE700BFFFF7C4FC34
:101A0000FF26002000214FF448724FF4F073009637
:101A1000FFF7B2FD4FF4FA60FEF712FE012001213C
:101A200040F21E324FF4EF730097FFF7A5FD4FF41D
:101A30007A70FEF705FE00200021A0228023009787
:101A4000FFF79AFD4FF47F450020002108228023F4
:101A5000CDF800800195FFF7B7FC0020002110228F
:101A60008023CDF800800195FFF7AEFC0020002117
:101A700018228023CDF800800195FFF7A5FC0020F7
:101A8000002120228023CDF800800195FFF79CFCE7
:101A90000020002128228023CDF800800195FFF747
:101AA00093FC0020002130228023CDF80080019596
:101AB000FFF78AFC0020002138228023CDF8008027
:101AC0000195FFF781FC0020002140228023CDF802
:101AD00000800195FFF778FC002000214822802338
:101AE000CDF800800195FFF76FFC00200021502207
:101AF0008023CDF800800195FFF766FC00200021CF
:101B000058228023CDF800800195FFF75DFC00206E
:101B1000002160228023CDF800800195FFF754FC5E
:101B20000020002168228023CDF800800195FFF776
:101B30004BFC0020002170228023CDF8008001950D
:101B4000FFF742FC0020002178228023CDF800809E
:101B50000195FFF739FC0020002180228023CDF879
:101B600000800195FFF730FC0020002188228023AF
:101B7000CDF800800195FFF727FC0020002190227E
:101B80008023CDF800800195FFF71EFC0020002186
:101B900098228023CDF800800195FFF715FC0020E6
:101BA0000021A0228023CDF800800195FFF70CFCD6
:101BB0004FF47A70FEF744FD00200021A022082394
:101BC000CDF800800195FFF7FFFB00200021A02247
:101BD0001023CDF800800195FFF7F6FB00200021CF
:101BE000A0221823CDF800800195FFF7EDFB00201F
:101BF0000021A0222023CDF800800195FFF7E4FB0F
:101C000000200021A0222823CDF800800195FFF7B5
:101C1000DBFB00200021A0223023CDF800800195BD
:101C2000FFF7D2FB00200021A0223823CDF800804E
:101C30000195FFF7C9FB00200021A0224023CDF829
:101C400000800195FFF7C0FB00200021A02248235F
:101C5000CDF800800195FFF7B7FB00200021A022FE
:101C60005023CDF800800195FFF7AEFB0020002146
:101C7000A0225823CDF800800195FFF7A5FB002096
:101C80000021A0226023CDF800800195FFF79CFB86
:101C900000200021A0226823CDF800800195FFF7E5
:101CA00093FB00200021A0227023CDF80080019535
:101CB000FFF78AFB00200021A0227823CDF80080C6
:101CC0000195FFF781FB00200021A0228023CDF8A1
:101CD00000800195FFF778FBFA20FEF7B1FC4FF684
:101CE0000075C0F2FF050226462038211422102379
:101CF00000960195FFF70AFC3C2030212822202382
:101D000000960195FFF702FC322028213C22302367
:101D100000960195FFF7FAFB28202021502240234E
:101D200000960195FFF7F2FB1E2018216422502334
:101D300000960195FFF7EAFB14201021782260231A
:101D400000960195FFF7E2FB0A2008218C22702300
:101D500000960195FFF7DAFB00200021A0228023E6
:101D600000960195FFF7D2FB4FF4FA60FEF768FC8E
:101D700000F020F841F2656043F66042C0F60000D2
:101D8000C0F60002002100F047F8206000F026F8BD
:101D9000FEE70000EFF3058100291CBF6FF005008E
:101DA0007047002804BF0020704780B500F0B8FFDE
:101DB000002080BDEFF3058000281CBF6FF00500F8
:101DC000704740F2CC10C2F200000168002911BF38
:101DD0004FF0FF30012101600020704710B5EFF394
:101DE000058000281CBF6FF0050010BD40F2CC102C
:101DF000C2F20000016801291CBF4FF0FF3010BD86
:101E00004EF61F51CEF2000100240C700221016039
:101E100001F050F8204610BDF0B585B08C46002387
:101E20000493EFF3058140B139B94AB19469002CAC
:101E300008BF1824382C15D90023184605B0F0BD6A
:101E400000218023182404AF9AB2634600940197BE
:101E500001F096FC01280CBF049B0023184605B036
:101E6000F0BD00BF1179C90720D15669D2E90257E8
:101E70004FEA960E1168002E734608BF80238DB17D
:101E80005C2F13D312690023002A18BF002ED4D070
:101E9000CDE9004272466346029501F0A1FC05B00F
:101EA000F0BD00BF17B91269002ACCD00023184634
:101EB00005B0F0BD2DE9F041044600F0EFFD40F221
:101EC000C406C2F20006F06840F208350130F06046
:101ED0003068C2F2000558B13069002840F007812F
:101EE0003068E16AC06A884298BF3460FFE000BF92
:101EF0003460F068012840F0FA80284600F074FD54
:101F000005F1140000F070FD05F1280000F06CFDF3
:101F100005F13C0000F068FD05F1500000F064FDA3
:101F200005F1640000F060FD05F1780000F05CFD53
:101F300005F18C0000F058FD05F1A00000F054FD03
:101F400005F1B40000F050FD05F1C80000F04CFDB3
:101F500005F1DC0000F048FD05F1F00000F044FD63
:101F600005F5827000F040FD05F58C7000F03CFD39
:101F700005F5967000F038FD05F5A07000F034FD11
:101F800005F5AA7000F030FD05F5B47000F02CFDE9
:101F900005F5BE7000F028FD05F5C87000F024FDC1
:101FA00005F5D27000F020FD05F5DC7000F01CFD99
:101FB00005F5E67000F018FD05F5F07000F014FD71
:101FC00005F5FA7000F010FD05F5027000F00CFD4B
:101FD00005F5077000F008FD05F50C7000F004FD34
:101FE00005F5117000F000FD05F5167000F0FCFC21
:101FF00005F51B7000F0F8FC05F5207000F0F4FC0E
:1020000005F5257000F0F0FC05F52A7000F0ECFCF9
:1020100005F52F7000F0E8FC05F5347000F0E4FCE5
:1020200005F5397000F0E0FC05F53E7000F0DCFCD1
:1020300005F5437000F0D8FC05F5487000F0D4FCBD
:1020400005F54D7000F0D0FC05F5527000F0CCFCA9
:1020500005F5577000F0C8FC05F55C7000F0C4FC95
:1020600005F5617000F0C0FC05F5667000F0BCFC81
:1020700005F56B7000F0B8FC05F5707000F0B4FC6D
:1020800005F5757000F0B0FC05F57A7000F0ACFC59
:1020900005F57F7000F0A8FC05F5826000F0A4FC57
:1020A00005F2244000F0A0FC05F5876000F09CFCE0
:1020B00005F24C4000F098FC40F2A018C2F2000873
:1020C000404600F091FC08F11407384600F08CFC03
:1020D00006F1640000F088FC06F13C0000F084FC8E
:1020E00006F1500000F080FCC6F81C803762706872
:1020F000716A421CE06A72608842626488BF7062E2
:1021000000EB800005EB8000211D00F0AFFC00F02B
:10211000E9FC306988B13068E16AC06A884228BF4A
:10212000BDE8F0814EF60450CEF200004FF0805131
:102130000160BFF34F8FBFF36F8FBDE8F0810000E8
:1021400040F2C40540F208364EF60458C2F20005CB
:10215000C2F20006CEF200084FF0805703E000BF45
:10216000204600F0D7FCA868D0B100F097FCA86C1E
:10217000C468201D00F00AFCE8680138E860A8681F
:102180000138A86000F0AEFC94F859000228EAD0AB
:102190000128E5D070B9206B00F0BCFCE0E700BF7F
:1021A00030680228DFD3C8F80070BFF34F8FBFF349
:1021B0006F8FD8E74FF0500080F31188BFF36F8F17
:1021C000BFF34F8FFEE700002DE9F0470A9C8246DF
:1021D000206B16460F46DDE908599100A522984666
:1021E000FEF7FFF8206B002F00EB8600A0F1040043
:1021F00020F0070656D0387884F834003878002864
:102200004BD0787884F835007878002845D0B878B5
:1022100084F83600B87800283FD0F87884F8370082
:10222000F878D0B3387984F838003879A8B3787959
:1022300084F83900787980B3B87984F83A00B879AD
:1022400058B3F87984F83B00F87930B3387A84F8D9
:102250003C00387A08B3787A84F83D00787AE0B1A7
:10226000B87A84F83E00B87AB8B1F87A84F83F00BA
:10227000F87A90B1387B84F84000387B68B1787B7D
:1022800084F84100787B40B1B87B84F84200B87B89
:1022900000281CBFF87B84F84300002084F843002A
:1022A00003E000BF002084F834000027201D372DF4
:1022B00028BF3725E562C4E9135700F0A1FB04F1FC
:1022C000180000F09DFBC5F13800A0613046514672
:1022D000424624616462676584F8587000F042FBEE
:1022E000B9F1000F206018BFC9F80040BDE8F087C1
:1022F00008480068006880F308884FF0000080F309
:10230000148862B661B6BFF34F8FBFF36F8F00DFE3
:1023100000BF000008ED00E081B00020009040F216
:102320000C00C2F2000000684FF0500181F31188E8
:10233000BFF36F8FBFF34F8F013007D0FEE700BFB1
:10234000009830B9009820B9009810B9009800287A
:10235000F6D001B07047000088B040F23C1AC2F2DB
:10236000000A0DF11009EB46DAF8080005681DB106
:10237000C068046801E000BF002400F013FE01F013
:102380007BFADAF810100646884220D3002DCAF8EE
:10239000106051D0A6424FD301F076FBDAF8080066
:1023A000C068C7683D1D284600F0F0FA97F828007D
:1023B000410745D400F0FE0087F8280084E000BF04
:1023C0006860DAF8080039462D6100F01DFBDAF884
:1023D0000800016831B3C068C56804682F1D38461D
:1023E00000F0D4FA296A2846884795F82800400763
:1023F000EDD5A8692044A042E2D8DAF80000002810
:1024000000F04881002004A931C101F025FADAF872
:10241000000049460022002300F074FF0028D6D1B6
:1024200038E100BFDAF80C10CAF81060CAE90210EF
:1024300001F02AFB1AE100BF65B1002210E000BFE5
:10244000B8693F610119B14279601FD90AF10800EA
:1024500021E000BFDAF80C000068B0FA80F0420911
:10246000DAF80000A11B00F031FC01F00DFB0028A0
:1024700040F0FC804EF60450CEF200004FF0805148
:102480000160BFF34F8FBFF36F8FEFE0311B8142CD
:1024900006D20AF10C000068294600F0B5FA13E0F4
:1024A000DAF80000002800F01381002004A991C18F
:1024B00001F0D2F9DAF8000049460022002300F0CA
:1024C00021FF002800F00481396A38468847CDE0B2
:1024D0000098B0F1FF3F07DCDDE901200399904748
:1024E0000098002800F1C280029E706910B1301D72
:1024F00000F04CFA01F0C0F9DAF8101007468842F3
:102500000DD30098CAF8107009283FD9AEE000BF7B
:102510006860DAF8080021462D6100F075FADAF8F3
:102520000800016841B3C068C568D0F800802C1D60
:10253000204600F02BFA296A2846884795F828009B
:102540004007ECD5A86940444045E1D8DAF80000DE
:10255000002800F095800020CDE90408069501F0E0
:102560007BF9DAF8000049460022002300F0CAFE99
:102570000028D4D184E000BFDAF80C10CAE90210B8
:102580000098CAF81070092800F27080DFE800F0A7
:102590000606064448620606444800BF96F828002E
:1025A000019A40F00101B06986F82810831831467D
:1025B00041F8043FBB42366106D997420AF1080050
:1025C00007D293420AD204E0BA1A824206D20AF132
:1025D0000C00006800F018FA48E000BF316A30468D
:1025E000884796F82800400740D5DAF80000002810
:1025F0005AD00198B169069608440021CDE904102B
:1026000001F02AF9DAF8000049460022002300F020
:1026100079FE58BB48E000BF96F8280022E000BFD2
:1026200096F8280040F00101019886F8281000284B
:10263000B06143D0384431460AF10C0241F8040F2E
:102640003661B84288BF0AF10802106800F0DCF970
:102650000CE000BF96F82800810703D4304600F054
:1026600059FA03E000F0FE0086F82800DAF80000CE
:102670005946002200F05CFF00287FF429AF73E682
:102680004FF0500080F31188BFF36F8FBFF34F8F6F
:10269000FEE700BF4FF0500080F31188BFF36F8F4B
:1026A000BFF34F8FFEE700BF4FF0500080F311885B
:1026B000BFF36F8FBFF34F8FFEE700BF4FF05000A7
:1026C00080F31188BFF36F8FBFF34F8FFEE700BF1A
:1026D0004FF0500080F31188BFF36F8FBFF34F8F1F
:1026E000FEE70000F0B581B0044600F0D7F994F998
:1026F0004560012E0FDB04F1240500BF286850B1AE
:10270000284601F087F9002818BF00F053FBF0B20B
:10271000013E0128F2D8FF2684F8456000F0E2F976
:1027200000F0BCF994F94470012F0EDB04F11005A0
:10273000286850B1284601F06DF9002818BF00F054
:1027400039FBF8B2013F0128F2D884F8446001B0A7
:10275000BDE8F04000F0C6B970B5044600F022FCB8
:1027600040F2781CC2F2000CDCF8040050B19CF876
:102770000000002818BF4FF000404FF000057CBB60
:102780008DE000BF40F26870C2F20000C21D22F06E
:10279000070210F00701A0EB020318BF1046002249
:1027A0004FF47055CCE90602002918BF03F57055A7
:1027B0004119083921F00701CCF80410C1E90022C1
:1027C000DCF80420091AC0E9002101208CF800007F
:1027D0004FF00040CCE90211002C4FF000055ED014
:1027E00020405CD104F1100020F00702600708BF10
:1027F00004F10802002A4FF0000550D0DCF8080070
:1028000082424CD8604650F818EFDEF804509542EA
:102810002BD2DEF80010B9B174464D68954217D23C
:102820000B68ABB15D68954216D21868A0B14568D7
:10283000954215D204689CB16568954214D221680E
:10284000A6460029E9D110E00CF118000DE000BF08
:102850008E46204609E000BF9E46084605E000BFC0
:102860008646184601E000BFA646DCF804108E45F7
:1028700014D00168DEF80040AB1A112B04604DD370
:102880000EEB0205680719D04FF0500080F3118855
:10289000BFF36F8FBFF34F8FFEE700BF002501F03E
:1028A000F3F868075BD04FF0500080F31188BFF356
:1028B0006F8FBFF34F8F00BFFEE700BF0CF1180012
:1028C0006B60CEF8042000BF0368AB420AD21868E0
:1028D000A8420BD20368AB4204D218681A46A84239
:1028E000F2D304E00246184601E000BF1A465368DE
:1028F0006C68D618AE4202D11C44154654602B19A0
:10290000834207D1DCF80430984203D0D0E90003B9
:1029100023446B60AA42286018BF156001F10805C6
:10292000DEF80400DCE90212091A9142CCF8081022
:1029300038BFCCF80C109CF80010002918BF40F0EC
:102940000040CEF80400DCF8100000210130CEF881
:102950000010CCF8100001F097F86807A3D12846C2
:1029600070BD0000034642F21930C0F600004FF07F
:10297000807C21F0010103E903106FF0020043F8AD
:10298000240CA3F1440043F8202C7047D0E9013215
:1029900001699A60D1F804C082688445536008BF19
:1029A0004A600022026108680138086008687047C0
:1029B00044F26C53C2F20003036044F26C30C2F282
:1029C00000000860802010607047000044F6C813C3
:1029D000C2F20003036044F2C850C2F20000086073
:1029E0004FF48070106070474FF0FF31024642F89C
:1029F000081F00214260C0E9032201607047000007
:102A0000002101617047000010B5D1F800E01EF10F
:102A1000010213D000F1080462681368734511D8ED
:102A200053681C68744511D85A68146874450FD8E7
:102A300054682368A4467345EED90BE00269D2F8C6
:102A400004C007E09446224604E000BF9C4601E033
:102A500094461A46C1F804C0CCF808108A60516048
:102A6000086101680131016010BD0000D0F800C0AC
:102A7000436808619A684B608A609A6899605160FF
:102A80000CF1010101607047DFF80C00016841F4AE
:102A9000700101607047000088ED00E04FF05000C9
:102AA00080F31188BFF36F8FBFF34F8F40F20C009C
:102AB000C2F2000001684A1C026009B1704700BF01
:102AC0004EF60450CEF200000068000608BF7047C2
:102AD0004FF0500080F31188BFF36F8FBFF34F8F1B
:102AE000FEE7000040F20C00C2F20000016839B1BC
:102AF0000139016018BF7047002080F311887047CA
:102B00004FF0500080F31188BFF36F8FBFF34F8FEA
:102B1000FEE7000070B5002808BF70BD40F27815D0
:102B2000C2F200050446287854F8041C002818BF97
:102B30004FF0004008420DD0A4F1080632689AB167
:102B40004FF0500080F31188BFF36F8FBFF34F8FAA
:102B5000FEE700BF4FF0500080F31188BFF36F8F86
:102B6000BFF34F8FFEE700BF21EA000044F8040CDA
:102B700000F018FA54F8041CA8680844A86005F18D
:102B8000180000BF0368B3420AD21868B04225D2C9
:102B90000368B34204D218681A46B042F2D301E087
:102BA000024618465368D418B44202D11944164656
:102BB00051607318834206D16B68984203D0D0E904
:102BC000000319447160B242306018BF1660686932
:102BD00001306861BDE8704000F056BF1A46536886
:102BE000D418B442E5D1E1E74EF21000CEF2000075
:102BF00000210160816040F20801C2F20001096811
:102C000044F6D352C1F26202A1FB02124FF0FF312F
:102C100001EB9211416007210160704744F6242CBA
:102C2000C2F2000CDCF8002022B3634653F8082FF0
:102C300042B3634653F8102F52B3634653F8182F2C
:102C400062B3634653F8202F72B3634653F8282FBC
:102C500082B3634653F8302F92B3634653F8382F4C
:102C6000002A18BF7047072219600CEBC2014860A8
:102C7000704700BF0022634619600CEBC201486038
:102C8000704700BF012219600CEBC2014860704719
:102C9000022219600CEBC2014860704703221960E0
:102CA0000CEBC20148607047042219600CEBC201B2
:102CB00048607047052219600CEBC20148607047FC
:102CC000062219600CEBC2014860704770B51546CA
:102CD0000E460446FFF7E2FE94F84400FF2804BFC6
:102CE000002084F8440094F84500FF2804BF002029
:102CF00084F84500FFF7F6FEA06B28B12046BDE83A
:102D00007040FFF7EFBC00BF04F1240031462A46B3
:102D100000F092F82046BDE87040FFF7E3BC0000E9
:102D200070B588B340F2C405C2F200050446686974
:102D300050B14FF0500080F31188BFF36F8FBFF395
:102D40004F8F00BFFEE700BF686901306861AE6960
:102D500028680430FFF71AFE2868A419446005D3D8
:102D6000286A29680431FFF74FFE08E0E8692968FE
:102D70000431FFF749FEE86A844238BFEC6200F094
:102D800083FE002818BF70BD4EF60450CEF200003E
:102D90004FF080510160BFF34F8FBFF36F8F70BD55
:102DA00040F2C401C2F200018A6B0260896941608D
:102DB0007047000040F2C400C2F20000012101632C
:102DC0007047000070B5D8B140F2C404C2F20004EC
:102DD0000D4621681831FFF717FEA66920680430F8
:102DE000FFF7D4FD681C15D02068AD19456019D3D4
:102DF000206A21680431BDE87040FFF705BE00BFBE
:102E00004FF0500080F31188BFF36F8FBFF34F8FE7
:102E1000FEE700BF54F8500B011D2046BDE870408E
:102E2000FFF724BEE06921680431FFF7EDFDE06A99
:102E3000854238BFE56270BDF0B581B0C0B140F2E7
:102E4000C404C2F200040D46216816461831FFF78B
:102E50000DFEA76920680430FFF798FD96B154F87D
:102E6000500B011D204601B0BDE8F040FFF7FEBD4C
:102E70004FF0500080F31188BFF36F8FBFF34F8F77
:102E8000FEE700BF2068ED19456007D3206A21687E
:102E9000043101B0BDE8F040FFF7B6BDE06921683C
:102EA0000431FFF7B1FDE06A854238BFE56201B049
:102EB000F0BD000010B588B00020CDE9050006A8DF
:102EC00005A904AAFFF774FD059800283ED0069CCA
:102ED000002C45D05C21049A079107995C2949D1BF
:102EE00007992063022084F8590007A80021CDE942
:102EF000001042F24110C0F6000028A10023029405
:102F0000FFF762F92046FEF7D5FF079840F2C404A8
:102F1000C2F20004A062B0B100F02EFE411C33D01A
:102F2000012810D14FF0500080F31188BFF36F8F4C
:102F3000BFF34F8F4FF0FF30E0620120206100208F
:102F4000A06100F095F808B010BD00BF4FF0500030
:102F500080F31188BFF36F8FBFF34F8FFEE700BF81
:102F60004FF0500080F31188BFF36F8FBFF34F8F86
:102F7000FEE700BF4FF0500080F31188BFF36F8F62
:102F8000BFF34F8FFEE700BF4FF0500080F3118872
:102F9000BFF36F8FBFF34F8FFEE700BF49444C452F
:102FA0000000000040F2C400C2F20000416901319B
:102FB0004161704780B540F2C40EC2F2000EDEF8E7
:102FC000141019B10121CEF8301080BD0021CEF8C7
:102FD0003010DEF8241040F2083C01EB8103C2F20D
:102FE000000C5CF823208AB101EB81020CEB820318
:102FF00053F8042F5268181D82421A6020D0D068FE
:10300000CEF80000CEF8241080BD00BF0CEB830288
:10301000A2F12803E1B15A6922BB012918D01A682C
:1030200012BB022914D053F8142CFAB903290FD07B
:1030300053F8282C0439002AA3F15003EAD0D3E72F
:1030400052681A60D068CEF80000CEF8241080BD17
:103050004FF0500080F31188BFF36F8FBFF34F8F95
:10306000FEE700BF0139BFE70239BDE70339BBE71F
:10307000B0B584B04EF2004CCEF2000C4CF2702190
:10308000C4F20F11DCF800294B1C9A420AD14FF010
:10309000500080F31188BFF36F8FBFF34F8F00BFD5
:1030A000FEE700BFDCF800298A4209D14FF050004A
:1030B00080F31188BFF36F8FBFF34F8FFEE700BF20
:1030C0009CF800100291FF218CF800109CF8001071
:1030D0008DF807109DF8071001F0500240F298118A
:1030E000C2F200010A7007224A609DF90720B2F17E
:1030F000FF3F69DC032200BFD31C4B609DF8070033
:1031000040008DF807009DF90700B0F1FF3F23DC78
:10311000931C4B609DF8070040008DF807009DF957
:103120000700B0F1FF3F17DC531C4B609DF8070010
:1031300040008DF807009DF90700B0F1FF3F0BDC60
:103140004A609DF80700043A40008DF807009DF999
:1031500007000028D0D4131D032B35D14FF4407045
:10316000486002988CF80000DCF8200940F47000F8
:10317000CCF82009DCF8200940F07040CCF8200998
:10318000FFF732FD40F20C04C2F200040025256076
:10319000FFF77AFC4EF63470CEF20000016841F081
:1031A00040410160FFF7A4F8FFF704FF0395206892
:1031B0004FF0500181F31188BFF36F8FBFF34F8F32
:1031C000013011D0FEE700BF4FF0500080F31188AE
:1031D000BFF36F8FBFF34F8FFEE700BF039830B987
:1031E000039820B9039810B903980028F6D000205E
:1031F00004B0B0BD80B54FF0500080F31188BFF32C
:103200006F8FBFF34F8F00F03DFB30B14EF604508F
:10321000CEF200004FF080510160002080F3118851
:1032200080BD000070B582B070B11C46B3B1F9B971
:10323000F2B14FF0500080F31188BFF36F8FBFF3EE
:103240004F8F00BFFEE700BF4FF0500080F31188A2
:10325000BFF36F8FBFF34F8FFEE700BF4FF05000FB
:1032600080F31188BFF36F8FBFF34F8FFEE700BF6E
:1032700051B14AB94FF0500080F31188BFF36F8FFE
:10328000BFF34F8FFEE700BF50230193019B502BEC
:103290002ED1019B069E0123002984F8463014BFDD
:1032A00022602460C4E90F01FFF7F8FB2068D4E92D
:1032B0000F12002502FB0103013901FB0201A56386
:1032C000C4E90103FF20E16084F8440084F845006C
:1032D00004F11000FFF788FB04F12400FFF784FBE2
:1032E000FFF700FC204684F84C6002B070BD00BFC0
:1032F0004FF0500080F31188BFF36F8FBFF34F8FF3
:10330000FEE700002DE9F04F83B00292C0B11D46E8
:1033100017460E460446E9B1022D03D1E06B0128A1
:1033200040F0888000F098FA10BB0FB34FF05000C7
:1033300080F31188BFF36F8FBFF34F8FFEE700BF9D
:103340004FF0500080F31188BFF36F8FBFF34F8FA2
:10335000FEE700BF206C0028DED04FF0500080F365
:103360001188BFF36F8FBFF34F8F00BFFEE700BF21
:10337000FFF794FBA06B022D66D0E16B884263D30C
:1033800004F1100801206F460DF108090DE000BF9F
:103390002046FFF7A7F900F077FBFFF77FFBA06B54
:1033A000E16B88424FF000004ED30299002973D0A0
:1033B000C00702D03846FFF7F3FCFFF793FBFFF797
:1033C000F1FDFFF76BFB94F84400FF2804BF0020D9
:1033D00084F8440094F84500FF2804BF002084F8D6
:1033E0004500FFF77FFB3846494600F077F9002893
:1033F00058D1FFF753FBD4F838A0D4F83CB0FFF70E
:1034000071FBDA45C4D102994046FFF7DBFC204648
:10341000FFF768F900F038FB0028BED14EF60450E3
:10342000CEF200004FF080510160BFF34F8FBFF329
:103430006F8FB2E74FF0500080F31188BFF36F8FAA
:10344000BFF34F8FFEE700BFA76B226CD2B19DB3D5
:10345000E0683146FCF780FFE168206C2268091AB9
:103460009142E16003D2A16840420844E060A81E96
:10347000B0FA80F040093946002F18BF01210840FA
:103480003F1A26E02068002520BBA06800F07CFAE7
:10349000A56005461EE000BFFFF724FB002003B037
:1034A000BDE8F08F2046FFF71DF900F0EDFA00208F
:1034B00003B0BDE8F08F00BF60683146FCF74CFFF9
:1034C000216CD4E9010208449042606001D3206875
:1034D00060600025781CA06354F8240FA0B120463A
:1034E00000F098FA50B14EF60450CEF200004FF0C2
:1034F00080510160BFF34F8FBFF36F8FFFF7F2FA78
:10350000012003B0BDE8F08F002DF7D04EF6045037
:10351000CEF200004FF080510160BFF34F8FBFF338
:103520006F8FFFF7DFFA012003B0BDE8F08F0000D6
:103530002DE9F04F83B0029290B116460D46044635
:10354000002949D000F088F9A0B99EB14FF0500091
:1035500080F31188BFF36F8FBFF34F8FFEE700BF7B
:103560004FF0500080F31188BFF36F8FBFF34F8F80
:10357000FEE700BFFFF792FAD4F838A0BAF1000FC7
:1035800038D0226C52B1D4E902308118E1609942FE
:1035900024BF2168E1602846FCF7DEFEAAF10100A5
:1035A000A06354F8100F80B1204600F033FA0028D1
:1035B00000F086804EF60450CEF200004FF08051AD
:1035C0000160BFF34F8FBFF36F8F0126FFF78AFAB9
:1035D000304603B0BDE8F08F206C0028B2D04FF029
:1035E000500080F31188BFF36F8FBFF34F8F00BF80
:1035F000FEE700BF002E4FF0000662D0EB465846B3
:1036000004F12408FFF7CCFB0DF10809FFF76AFA73
:10361000FFF7C8FCFFF742FA94F84400FF2808BF00
:1036200084F8446094F84500FF2808BF84F845609A
:10363000FFF758FA5846494600F050F860B1204666
:10364000FFF750F800F020FAFFF728FAA76BFFF712
:1036500049FA1FBB3CE000BFFFF720FAA76BFFF75A
:1036600041FA2FB12046FFF73DF800F00DFA15E0C2
:1036700002994046FFF7A6FB2046FFF733F800F01B
:1036800003FA58B94EF60450CEF200004FF08051C4
:103690000160BFF34F8FBFF36F8F00BFFFF7FEF9DD
:1036A000D4F838A0BAF1000F7FF46BAF029800286D
:1036B000ACD10026FFF716FA304603B0BDE8F08F14
:1036C0000126FFF70FFA304603B0BDE8F08F00BFC8
:1036D0000026304603B0BDE8F08F0000B0B5D8B189
:1036E0000D4619B30446FFF7D9F940F2C40CC2F2F3
:1036F000000CDCF8182029684B1C21D0D4E9000EFE
:10370000DCF83830834221D072451FD30124FFF703
:10371000E9F92046B0BD00BF4FF0500080F311889A
:10372000BFF36F8FBFF34F8FFEE700BF4FF0500026
:1037300080F31188BFF36F8FBFF34F8FFEE700BF99
:103740000024FFF7CFF92046B0BD00BFA2EB0E0268
:1037500091420DD9881A2860DCF838002060DCF826
:10376000180060600024FFF7BDF92046B0BD00BF1F
:10377000002001242860FFF7B5F92046B0BD000005
:103780002DE9F04383B007469000984615468946D8
:10379000FEF7E2FFF8B106465C20FEF7DDFFB8B1A8
:1037A0000446DDE90A100022266384F85920CDE999
:1037B0000010384649462A4643460294FEF704FD67
:1037C0002046FEF777FB012003B0BDE8F08300BF81
:1037D0003046FFF79FF94FF0FF3003B0BDE8F083AC
:1037E00070B586B00B9CCCB10C9E0EB35C250495D5
:1037F000049D5C2D26D1049DDDF828C0022586F8A5
:10380000595005AD3463CDE900C50296FEF7DCFCE6
:103810003046FEF74FFB059806B070BD4FF05000E4
:1038200080F31188BFF36F8FBFF34F8FFEE700BFA8
:103830004FF0500080F31188BFF36F8FBFF34F8FAD
:10384000FEE700BF4FF0500080F31188BFF36F8F89
:10385000BFF34F8FFEE7000040F2C400C2F2000049
:10386000016900290FBF01204069B0FA80F04009CA
:1038700018BF40007047000040F2C400C2F20000D0
:10388000806970472DE9F04381B040F2C406C2F26E
:103890000006706940B1706B0024013070632046EF
:1038A00001B0BDE8F08300BFB06910F10109C6F8AE
:1038B000189020D3F069006850B14FF0500080F3A9
:1038C0001188BFF36F8FBFF34F8F00BFFEE700BFBC
:1038D000F069316AF1613062B06B0130B063F06958
:1038E000006828B1F069C068C068406802E000BFA5
:1038F0004FF0FF30F062F06A40F208388145C2F2C2
:10390000000801D200242EE0F0690024006813E0D2
:10391000F86A716A884288BF706200EB800008EB29
:1039200080002946FFF7A2F8F86A3168C96AF2698F
:10393000884228BF0124106890B1F069C068C76848
:103940003D4655F8040F81450CD32846FFF71EF875
:10395000B86A0028DCD007F11800FFF717F8D7E79E
:103960004FF0FF30F0623068C06A00EB800058F81A
:103970002000012888BF0124306B002818BF0124D3
:10398000204601B0BDE8F08370B588B140F2C406AE
:10399000C2F2000604463068A0420BD04FF050003F
:1039A00080F31188BFF36F8FBFF34F8FFEE700BF27
:1039B000002070BD206D18B3411EE06AE26C2165E5
:1039C00090424FF0000008BF70BDC1B9251D2846C8
:1039D000FEF7DCFFE06CC0F13801E062A161716AC2
:1039E000884240F2083188BF706200EB8000C2F26A
:1039F000000101EB80002946FFF738F8012070BD77
:103A00004FF0500080F31188BFF36F8FBFF34F8FDB
:103A1000FEE7000070B5C068C5686DB105F1180417
:103A20002046FEF7B3FF40F2C406C2F200067069FA
:103A300060B106F164001AE04FF0500080F3118885
:103A4000BFF36F8FBFF34F8FFEE700BF2C1D2046E3
:103A5000FEF79CFFE86A716A884240F2083188BF2D
:103A6000706200EB8000C2F2000101EB8000214691
:103A7000FEF7FCFFE86A3168C96A884292BF0020FD
:103A80000120306370BD00002DE9F04140F2C40513
:103A9000C2F20005686968B1FFF700F8686901388B
:103AA0006861686980B10024FFF71CF82046BDE812
:103AB000F08100BF4FF0500080F31188BFF36F8F8B
:103AC000BFF34F8FFEE700BFE8680028EBD0686EB9
:103AD00088B340F20836C2F200064FF0010800BF7A
:103AE000286FC76807F11800FEF750FF3C1D2046FD
:103AF000FEF74CFFF86A696A884288BF686200EB8B
:103B0000800006EB80002146FEF7B0FFF86A2968C6
:103B1000C96A884228BFC5F83080686E0028DFD1A6
:103B2000E869006820B1E869C068C068406801E0E1
:103B30004FF0FF30E8626C6B4CB10126FFF7A2FE3C
:103B4000002818BF2E63013CF8D100206863286B61
:103B50000028A8D04EF60450CEF200004FF080515D
:103B60000160BFF34F8F0124BFF36F8FFEF7BAFFE1
:103B70002046BDE8F081000070B586B0FEF78EFFEC
:103B800040F23C16C2F20006306808BB06F114048D
:103B90002046FEF729FF06F128052846FEF724FFF8
:103BA00040F2182240F2B823C6E902450025C2F2CD
:103BB0000002C2F200030A2010210095FFF732FB39
:103BC000306028B143F68C41C0F60001FFF726F8BB
:103BD000FEF788FF3068D8B10020CDE9040005A8C1
:103BE00004A903AAFEF7F2FEDDE903200221059DE8
:103BF000CDE9001042F25930C0F6000009A10023BF
:103C00000295FFF7EDFD706010B1012006B070BDA8
:103C10004FF0500080F31188BFF36F8FBFF34F8FC9
:103C2000FEE700BF546D722053766300F1EE100A78
:103C30004FF6FF71C0F2C03120EA010040F0407041
:103C4000E1EE100A704700000000000000000102D1
:103C50000304060708090000000001020304000035
:103C6000843C00080000000000000000000000008C
:103C7000000000000020000018000000000000000C
:103C8000000000004C43445461736B00546D72514A
:103C900000000000B83C00080000002010000000F8
:103CA000C4010008C83C0008100000205850000063
:103CB000E00100080000000001000000100000000A
:083CC0000024F400AAAAAAAA3C
:040000050800018965
:00000001FF
