:020000040800F2
:10000000305800203102000879360008D92B00084A
:1000100075360008A51600082143000800000000FE
:10002000000000000000000000000000913E0008F9
:10003000A91600080000000081360008F93E0008FB
:100040004B0200084B0200084B0200084B0200085C
:100050004B0200084B0200084B0200084B0200084C
:100060004B0200084B0200084B0200084B0200083C
:100070004B0200084B0200084B0200084B0200082C
:100080004B0200084B0200084B0200084B0200081C
:100090004B0200084B0200084B0200084B0200080C
:1000A0004B0200084B0200084B0200084B020008FC
:1000B0004B0200084B0200084B0200084B020008EC
:1000C0004B0200084B0200084B020008953D000857
:1000D0004B0200084B0200084B0200084B020008CC
:1000E0004B0200084B0200084B0200084B020008BC
:1000F0004B0200084B0200084B0200084B020008AC
:100100004B0200084B0200084B0200084B0200089B
:100110004B0200084B020008DD3F00084B020008BC
:100120004B0200084B0200084B0200084B0200087B
:100130004B0200084B0200084B0200084B0200086B
:100140004B0200084B0200084B0200084B0200085B
:100150004B0200084B0200084B0200084B0200084B
:100160004B0200084B0200084B0200084B0200083B
:100170004B0200084B0200084B0200080000000080
:100180004B0200084B02000800F002F800F040F8B3
:100190000AA090E8000C82448344AAF10107DA45E2
:1001A00001D100F035F8AFF2090EBAE80F0013F0F4
:1001B000010F18BFFB1A43F00103184758740300DE
:1001C00078740300103A24BF78C878C1FAD852076F
:1001D00024BF30C830C144BF04680C6070470000C1
:1001E0000023002400250026103A28BF78C1FBD840
:1001F000520728BF30C148BF0B6070471FB50BF0D6
:1002000005F89DE8030000F0B7F91FBD10B510BD5B
:1002100000F040FA1146FFF7F1FF07F055FA00F041
:100220005EFA03B4FFF7F2FF03BC00F08FFA0000A0
:100230000948804709480047FEE7FEE7FEE7FEE77A
:10024000FEE7FEE7FEE7FEE7FEE7FEE704480549B6
:10025000054A064B70470000C93F000889010008A5
:1002600030520020305800203054002030540020FC
:1002700070B5064600F064F9056806F10B0020F041
:100280000704B4429CBF002070BD2B466A68BAB117
:100290001068A04210D304F1080188423CBF5068A6
:1002A000586007D35168101941601168091B01603B
:1002B00058601460101D70BD13465268002AE7D1C3
:1002C0002146284600F044F90028DED170BD70B503
:1002D0000446051F00F034F90068002C14BF446880
:1002E00070BD002C18BFAC423CBF20466468F8D3F8
:1002F00001680A18AA4218BF456003D12A6805465A
:100300001144016028684119A1421CBF6C6070BD96
:100310006168696021680844286070BD53EA020C76
:1003200000F069802DE9F04B4FF00006002B1FBF55
:10033000B3FA83F503FA05F424FA05F65E4012BF1A
:100340001643B2FA82F502FA05F4C5F120051EBF84
:1003500022FA05FC44EA0C04203556EA044C4FEA24
:10036000144418BF641C4FF000084FF0000990427D
:1003700071EB030C39D3002919BFB1FA81F701FAE7
:1003800007F6B0FA80F700FA07F6C7F120071EBF9C
:1003900020FA07FC46EA0C062037B6FBF4FCA7EB74
:1003A0000507103F07F01F0BCBF120062CFA06F6CD
:1003B0000CFA0BFB44BFB3460026202FA4BF5E46B9
:1003C0004FF0000B5BEA060C08BF4FF0010B19EB76
:1003D0000B0948EB0608ABFB027C06FB02CC0BFBCF
:1003E00003CCC01B71EB0C01C1E70B460246414632
:1003F0004846BDE8F08B13B5084318BF4FF0FF30F7
:100400000146AFF30080BDE81C407047032A40F26C
:10041000308010F0030C00F0158011F8013BBCF1A6
:10042000020F624498BF11F801CB00F8013B38BFBE
:1004300011F8013BA2F1040298BF00F801CB38BFCC
:1004400000F8013B11F0030300F0CC80083AC0F043
:10045000088051F8043B083A51F804CBA0E8081092
:10046000F5E7121D5CBF51F8043B40F8043BAFF3C5
:100470000080D20724BF11F8013B11F801CB48BF1F
:1004800011F8012B24BF00F8013B00F801CB48BF55
:1004900000F8012B704702F0FF0343EA032242EA0F
:1004A000024200F024B84FF000020429C0F012808C
:1004B00010F0030C00F01B80CCF1040CBCF1020F17
:1004C00018BF00F8012BA8BF20F8022BA1EB0C01EC
:1004D00000F00DB85FEAC17C24BF00F8012B00F8E2
:1004E000012B48BF00F8012B70474FF0000200B508
:1004F000134694469646203922BFA0E80C50A0E847
:100500000C50B1F12001BFF4F7AF090728BFA0E8F4
:100510000C5048BF0CC05DF804EB890028BF40F8C0
:10052000042B08BF704748BF20F8022B11F0804F02
:1005300018BF00F8012B70477047704770470000E4
:100540000048704740000020704770477047704770
:1005500038B504460A4600206946AFF300800028FB
:1005600008BF38BD02460099204600F071F801200E
:1005700038BD012000F086B8F8B5AFF3008005461D
:1005800000200C46102000BF0646A819A0420DD935
:10059000324669460020AFF30080070008BF00F034
:1005A00071F80098A04218BF0546C419FFF7C8FFAC
:1005B00005600746F01D20F007004619284600F0A8
:1005C0000AF8B44208BFF8BDA21B31463868BDE83E
:1005D000F84000F03DB800210160C0E9011070470B
:1005E0001020704710B5203AC0F00B80B1E81850C9
:1005F000A0E81850B1E81850A0E81850203ABFF40D
:10060000F5AF5FEA027C24BFB1E81850A0E81850AB
:1006100044BF18C918C0BDE810405FEA827C24BFFF
:1006200051F8043B40F8043B08BF7047D20728BF8D
:1006300031F8023B48BF11F8012B28BF20F8023BDC
:1006400048BF00F8012B7047004870473800002071
:10065000034640688C46002818BF88423CBF0346CA
:100660004068F8D318681844884207D00CF103009A
:1006700020F00700001D411A521A0146081D0A60A9
:10068000FFF725BE10B500F039F8BDE8104000F0C6
:100690002FB870477546FFF7D7FFAE46050069468D
:1006A000534620F00700854618B020B5FFF7CEFD71
:1006B000BDE820404FF000064FF000074FF0000863
:1006C0004FF0000BAC46ACE8C009ACE8C009ACE8A0
:1006D000C009ACE8C00921F007018D46704710B58C
:1006E0000446AFF300802046BDE81040FFF799BDF7
:1006F000002801D000F02AB87047000010B501288A
:1007000005D0002103A000F027F8012010BD09A1A9
:10071000F8E7000053494752544D454D3A204F7574
:1007200074206F662068656170206D656D6F7279E9
:10073000000000003A2048656170206D656D6F72A1
:100740007920636F727275707465640001491820B6
:10075000ABBEFEE72600020070B505460C460A2037
:1007600000E06D1C00F011F835B128780028F8D1B0
:1007700002E0641C00F009F814B120780028F8D1D8
:10078000BDE870400A20AFF3008008B569468DF8D7
:1007900000000320ABBE08BD2DE9F04F93B08046AA
:1007A000002411A809210022FF2300944FF0FF0923
:1007B00002F0B0FF9DF8440040F2980BC2F2000B2B
:1007C00010B10126E4E100BF40F6A0054FF6FF742A
:1007D0004FF47A7AC2F2000511AE0DF14B0700BF5B
:1007E000284631463A4601238DF84490CDF800A0C2
:1007F00001F034FE9DF84B00013CFE2818BF5FEA73
:100800000440EDD1200400F02D8140F6A005C2F295
:10081000000511AE0DF14B074FF0FF0A4FF47A744B
:10082000284631463A4601238DF844A0009401F051
:1008300015FE9DF84B0031460C9028463A460123A0
:100840008DF844A0009401F009FE9DF84B0031465C
:100850000B9028463A4601238DF844A0009401F0FD
:10086000FDFD9DF84B0031460A9028463A4601238B
:100870008DF844A0009401F0F1FD9DF84B00314645
:10088000099028463A4601238DF844A0009401F0CF
:10089000E5FD9DF84B003146089028463A46012375
:1008A0008DF844A0009401F0D9FD9DF84B0031462D
:1008B000049028463A4601238DF844A0009401F0A4
:1008C000CDFD9DF84B003146039028463A46012362
:1008D0008DF844A0009401F0C1FD9DF84B00314615
:1008E0000D9028463A4601238DF844A0009401F06B
:1008F000B5FD9DF84B003146109028463A4601233D
:100900008DF844A0009401F0A9FD9DF84B003146FC
:100910000F9028463A4601238DF844A0009401F038
:100920009DFD9DF84B0031460E9028463A46012326
:100930008DF844A0009401F091FD9DF84B003146E4
:10094000069028463A4601238DF844A0009401F011
:1009500085FD9DF84B003146079028463A46012315
:100960008DF844A0009401F079FD9DF84B003146CC
:10097000059028463A4601238DF844A0009401F0E2
:100980006DFD9DF84BB0284631463A4601238DF85F
:1009900044A0009401F062FD9DF84B6011A90DF197
:1009A0004B02284601238DF844A0009401F056FD27
:1009B00011A90DF14B02284601238DF844A00094A3
:1009C00001F04CFD0C99039F880040EA911088F8D3
:1009D00000000B98049988F801000A98042288F80E
:1009E0000200099802EAD70288F803000898082351
:1009F000000140EA111040EA013098F80610A8F80A
:100A0000040001F0F000022101EA571141EAD71178
:100A1000114440F29802C2F2000203EA57039446DE
:100A200052881944084488F80600FAB10D9BD8F89A
:100A300008201806B90041EA907002F060414FF4B6
:100A40007C1202EA0342109B00F03F0042EA0322BC
:100A50000F9B08441A4440EA82100E9A0024C8F8FA
:100A600008003EE00126002492E000BF0D9AB8F88D
:100A7000080007F003019200109C00F4404042EA95
:100A80008121C7F3810241EA9411104440EA8100B8
:100A9000A8F8080098F80A00C4F3C20300F0C000E8
:100AA00064F3C50398F80B1018440F9B88F80A00EC
:100AB00001F0C00003F01C01490041EA5311084451
:100AC00088F80B0003F003000E9B98F80C20D9095E
:100AD00041EA400002F0F801084488F80C000024C4
:100AE0001A46069BC2F380101906520042EAD171E1
:100AF000079D40EA410088F8100003F07F0005F0F0
:100B00008001084488F8110098F8120005F01C03D1
:100B1000C5F3411700F0E0003B44059F184488F8F6
:100B2000120005F00300BB0998F8131043EA800097
:100B3000102303EA570301F0E0011844084488F841
:100B4000130007F01F0020210BF0400301EA9B0176
:100B5000184498F815200BF02007084440EA870055
:100B6000062188F8140002F0E00001EA5B01CBF3F3
:100B700000120BF00303114441EAC301084488F852
:100B80001500F00140EA56000026E34688F81600FA
:100B90000025C4F2020528461021002200F042FF81
:100BA00040F6A0004FF47A7AC2F2000011A90DF1CC
:100BB0004B0201238DF84490CDF800A04FF00109BD
:100BC00001F04CFC11A80A210022FF23009402F03E
:100BD000A1FD9DF84400002840F0658140F6A00585
:100BE00010964FF6FF744FF0FF09C2F2000511AEE8
:100BF0000DF14B07284631463A4601238DF84490C3
:100C0000CDF800A001F02AFC9DF84B00013CFE2825
:100C100018BF5FEA0440EDD120044FF0010900F055
:100C20003E8140F6A006C2F2000611AF0DF14B0561
:100C30004FF0FF0B4FF47A74304639462A460123B1
:100C40008DF844B0009401F009FC9DF84B00394642
:100C50000F9030462A4601238DF844B0009401F0ED
:100C6000FDFB9DF84B0039460E9030462A46012385
:100C70008DF844B0009401F0F1FB9DF84B0039462B
:100C80000D9030462A4601238DF844B0009401F0BF
:100C9000E5FB9DF84B0039460C9030462A4601236F
:100CA0008DF844B0009401F0D9FB9DF84B00394613
:100CB0000B9030462A4601238DF844B0009401F091
:100CC000CDFB9DF84B0039460A9030462A46012359
:100CD0008DF844B0009401F0C1FB9DF84B003946FB
:100CE000099030462A4601238DF844B0009401F063
:100CF000B5FB9DF84B003946089030462A46012343
:100D00008DF844B0009401F0A9FB9DF84B003946E2
:100D1000079030462A4601238DF844B0009401F034
:100D20009DFB9DF84B003946069030462A4601232C
:100D30008DF844B0009401F091FB9DF84B003946CA
:100D4000059030462A4601238DF844B0009401F006
:100D500085FB9DF84B003946049030462A46012316
:100D60008DF844B0009401F079FB9DF84B003946B2
:100D7000039030462A4601238DF844B0009401F0D8
:100D80006DFB9DF84B003946029030462A46012300
:100D90008DF844B0009401F061FB9DF84B0039469A
:100DA000019030462A4601238DF844B0009401F0AA
:100DB00055FB9DF84B5011A90DF14B023046012314
:100DC0008DF844B0009401F049FB8DF844B040F236
:100DD000980B11A90DF14B0230460123C2F2000B12
:100DE000009401F03BFB0F9888F818000E98000261
:100DF000A8F81A00B8F81A000D990843A8F81A00C4
:100E00000C980006C8F81C00D8F81C000B9940EAA2
:100E10000140C8F81C00D8F81C000A9940EA0120DB
:100E2000C8F81C00D8F81C0009990843C8F81C0031
:100E3000089888F82000079888F82100069800068E
:100E4000C8F82400D8F82400059940EA0140C8F801
:100E50002400D8F82400049940EA0120C8F82400AE
:100E6000D8F8240003990843C8F8240098F828000B
:100E7000029940EA111088F8280001F00F000002E2
:100E8000A8F82A00B8F82A0001990843A8F82A000F
:100E9000680888F82C0088F82D904FF00009109E03
:100EA0000025C4F2020528461021002200F0BAFDF8
:100EB000FF208DF8440040F6A000C2F2000011A906
:100EC0000DF14B020123CDF800A0012401F0C6FA78
:100ED000BBF8020001280FD1D8F808004FF4002217
:100EE00002EB40304FF400716FF31200C8F83C1071
:100EF000C8E90C0117E000BFB8F8080098F80C101A
:100F0000C0F38B0001F0070101300231B8F8042072
:100F100088404FF40071C8F83C10110B04FA01F23C
:100F20008840C8E90C02410A49EA0600C8F83810AE
:100F300013B0BDE8F08F000070B584B002200090BF
:100F400002A80D210022FF23FF2402F0E3FB002072
:100F50009DF808509DF80960C4F20200102100229B
:100F600000F060FD40F6A0008DF80F404FF47A7459
:100F7000C2F200000DF10F010DF10E0201230094E9
:100F800001F06CFA55EA060018BF012004B070BDEC
:100F90002DE9F04F83B040F2980140F6A006C2F26E
:100FA000000101204FF0000901AD4FF0FF0A4FF49E
:100FB0007A7BC2F200060DF10B07012408708DF850
:100FC0000A9000BF9DF80A00002101308DF80A0048
:100FD000284600229523CDF8009002F09BFB0020CC
:100FE0009DF80480C4F202001021002200F01AFDD6
:100FF000304629463A4601238DF804A0CDF800B0CA
:1010000001F02CFA9DF80A00632800F2D980B8F1AB
:10101000010FD7D1052701A808214FF4D5728723E6
:10102000009702F077FB40F2000BC4F2020B9DF830
:10103000044058461021002200F0F4FC40F6A000C5
:101040004FF0FF0A4FF47A79C2F2000001A90DF1C6
:101050000B0201238DF804A0CDF8009001F0FEF9F9
:10106000600700F1B180012C40F0F08040F6A0064E
:101070004FF0000901AD4FF0FF0A4FF47A78C2F249
:1010800000060DF10B0700BF284637210022FF2381
:10109000CDF8009002F03EFB58461021002200F0EF
:1010A000C1FC304629463A4601238DF804A0CDF80C
:1010B000008001F0D3F9284629214FF08042FF2318
:1010C000CDF8009002F026FB9DF804405846102110
:1010D000002200F0A7FC304629463A4601238DF84D
:1010E00004A0CDF8008001F0B9F9012CCCD0600744
:1010F000DA4641D540F6A008002601AD4FF0FF0BBF
:101100004FF47A79C2F200080DF10B072846372117
:101110000022FF23009602F0FDFA9DF8046050467D
:101120001021002200F07EFC404629463A46012369
:101130008DF804B0CDF80090012401F08FF9012E54
:101140003ED1284629210022FF230026009602F0E6
:10115000E1FA9DF8044050461021002200F062FCA4
:10116000404629463A4601238DF804B0CDF8009058
:1011700001F074F9012CC9D00320009001A83A2194
:101180000022FF23FF2402F0C5FA9DF804609DF8B9
:10119000055050461021002200F044FC4FF47A70B4
:1011A000009040F6A000C2F2000001A90DF10B0270
:1011B00001238DF80440012401F050F9002E4BD09A
:1011C000204603B0BDE8F08F40F6A00801ADC2F2A2
:1011D00000080DF10B070024284637210022FF23C9
:1011E000009402F097FA58461021002200F01AFCF1
:1011F000404629463A4601238DF804A0CDF80090D8
:1012000001F02CF9284629210022FF23009402F046
:1012100081FA9DF8046058461021002200F002FC7B
:10122000404629463A4601238DF804A0CDF80090A7
:1012300001F014F9012ECFD040F29800C2F2000064
:1012400044800024204603B0BDE8F08F01242046EE
:1012500003B0BDE8F08F00BFC5F38014ECE70000D9
:101260002DE9F04F87B003928946074640F2000A05
:101270004FF0000B05A810214FF40072FF23C4F2B9
:10128000020ACDF800B0FF2402F044FA9DF8145091
:1012900050461021002200F0C5FB40F6A0004FF49C
:1012A0007A76C2F2000005A90DF11B0201238DF828
:1012B000144000964FF0010801F0D0F8E5B1504617
:1012C0001021002200F0AEFB40F6A000C2F20000A8
:1012D00005A90DF11B0201238DF81440009601F0C1
:1012E000BDF8BBF1000F02D05846FEF7F0FF4046B4
:1012F00007B0BDE8F08F00BF039D4FF40070CDF83C
:1013000010900297FEF7B4FF002800F08F804FF492
:101310000071FF2283464FF0FF09FFF7BCF8002D54
:101320004FF00008CBD040F29800C2F20000408895
:1013300040F6A004012818BF4FF40070049905AED0
:1013400000FB01F74FF47A7AC2F200040DF11B089A
:1013500000200490CDF804B03046112103973A469E
:10136000FF230027009702F0D5F99DF8140000280C
:1013700064D1013D4FF6FF772046314642460123B6
:101380008DF81490CDF800A001F068F89DF81B00CE
:10139000013FFE2818BF5FEA0740EDD138040298EC
:1013A0004AD0049FDDF804B0C219204659464FF4D4
:1013B0000073CDF800A001F051F840F29800C2F29D
:1013C0000000408807F500770497012818BF4FF404
:1013D0000070039F314607442046424601238DF8A2
:1013E0001490CDF800A001F039F82046314642466D
:1013F00001238DF81490CDF800A001F02FF8002003
:10140000C4F202001021002200F00CFB20463146FD
:10141000424601238DF81490CDF800A001F01EF88B
:10142000002D99D14FF000080AE000BF4FF0000BEB
:101430004FF0010843E700BFDDF804B04FF00108AA
:1014400040F2000AC4F2020AFF244FF47A7636E72B
:101450002DE9F04F89B08246002093468846002649
:10146000009007A810214FF40072FF23C4F2020677
:101470004FF0FF0902F04EF99DF81C703046102124
:10148000002200F0CFFA40F6A0004FF47A74C2F2C6
:10149000000007A90DF1230201238DF81C90009490
:1014A000012500F0DBFF002F40F0E5804FF40070D5
:1014B000FEF7DEFE0028039000F0CE80BBF1000FA7
:1014C0004FF0000500F0D48040F29800C2F2000016
:1014D0004088CDF808A0012818BF4FF4007000FB29
:1014E00008F040F6A007059007AC4FF0FF094FF455
:1014F0007A7AC2F200070DF123080020049000BFA1
:10150000059A20461821FF23009502F003F99DF863
:101510001C00002840F0A2803846214642460123A4
:10152000CDF818B08DF81C90CDF800A000F096FF13
:1015300038462146424601238DF81C90CDF800A084
:1015400000F08CFFFE208DF81C00384621464246F4
:101550000123CDF800A000F081FF0298049E039AB9
:10156000811938464FF40073CDF800A000F076FFE3
:1015700040F29800C2F200004588384621464246B3
:101580000123012D18BF4FF400758DF81C90CDF884
:1015900000A000F063FF38462146424601238DF843
:1015A0001C90CDF800A000F059FF38462146424675
:1015B00001238DF81C90CDF800A000F04FFF9DF89E
:1015C00023B038462146424601238DF81C90CDF8C1
:1015D00000A000F043FF0BF01F00052840D1069843
:1015E00006F50076013806900598049600262844F2
:1015F000C4F20206059030461021002200F012FAD3
:1016000030461021012200F00DFA00BF3846214675
:10161000424601238DF81C90CDF800A000F01EFF7B
:101620009DF82300FF28F1D130461021002200F060
:10163000F9F938462146424601238DF81C90CDF831
:1016400000A000F00BFFDDF818B00025BBF1000F83
:101650007FF456AF002507E001250CE0012503E0EB
:1016600000260125C4F202064FF0FF094FF47A74F8
:101670000398FEF72CFE30461021002200F0D2F92C
:1016800040F6A000C2F2000007A90DF123020123D9
:101690008DF81C90009400F0E1FE284609B0BDE8EA
:1016A000F08F0000FEE700007047000080B540F2B8
:1016B0005C63C2F200035A7A002A1CBF012080BD7D
:1016C00093F809C08646002003F80C005A7A03EB11
:1016D0008202C2F804E05A7A1A44107293F809C0E0
:1016E0000CF101025A720CF130020A7042F63A72A1
:1016F000A1F80120C87080BDB0B5B3F5804F034696
:101700001AD153F822C00020CCF6F0700CEA000E7B
:1017100091E83100D1F818C040EA0E0040EA041008
:10172000C96840EA052040EA0C0040EA0141002077
:1017300043F82210B0BD00BF6FF07041002043F8A5
:101740002210B0BD2DE9F04F83B00B68024650F86F
:10175000230001F1240B20F0010042F82300D1E91D
:101760000230D1E900CE01908869D1E9049A029053
:10177000C86BD1E9077600909BE83008D1F830803B
:1017800052F82C008021CFF6F07108404EEA030198
:10179000082B08BF41F04001019B194341EA0901B0
:1017A00041EA0A01394331432143294341EA0B010C
:1017B000029B41EA08011943009B194301430020A1
:1017C00042F82C1003B0BDE8F08F0000F0B500EB3C
:1017D00082025068D1E902E400F0404CD1E90030C7
:1017E000D1E9045643EA0C03002743EA0010CFF680
:1017F000F07740EA0E20896907EB055540EA04407E
:101800002843FE36084340EA066100205160F0BDDF
:1018100090F83510022909D1052180F835100068AB
:10182000016821F0010101600020704780214165BD
:1018300001207047B0B5044600F0FAF8054640F2C2
:101840000000C2F200000078611C18BF044400BF11
:1018500000F0EEF8401BA042FAD3B0BD2DE9F04FE6
:1018600082B000F13E4241F6004502F1FF77C4F23A
:10187000020508224FEAB726A84208BF0722072E12
:1018800038BF4FEAB7224FF0010A002400274FF07B
:101890000008009208E000BF023708F10108202F7D
:1018A00004F1040400F0B4800E680AFA08F916EA9C
:1018B000090FF1D0D1F804A00AF0030BABF1010637
:1018C000012E17D80322866802FA07FECA6826EAA4
:1018D0000E06BA40324382604268CAF3001522EA1B
:1018E000090205FA08F54FEA480C6FEA0E062A438A
:1018F00042600BE00322BA40D643BBF1030FBC4663
:1019000004D1BC464FF0030B22E000BFC2688D68D3
:10191000324005FA0CF52A43BBF1020FC26017D121
:101920006FF0030202EA5802024404F01C030F2580
:10193000D2F820E005FA03FA0D692EEA0A0E05FA3C
:1019400003F343EA0E031362D1F804A00AF0030B79
:1019500002680BFA0CF332401A431AF4403F4FF07E
:10196000010A026098D0002243F644030192C4F2B7
:1019700002031A6843F6004E42F480421A601A6865
:10198000C4F2010E02F480420192019A28F003028F
:101990004FF6084C7244CFF6FF7C52F80C3004F03E
:1019A0000C060F25B540AB43009D05FA06F6334300
:1019B00042F80C30DEF808204B6842EA090643F68C
:1019C0000C4CDD0258BF22EA0906CEF80860C4F2CA
:1019D000010CDCF800209D0242EA090658BF22EA09
:1019E0000906CCF80060DEF804209D0342EA0906EF
:1019F00058BF22EA0906CEF80460DEF80020DB03B7
:101A000042EA090658BF22EA0906CEF8006043E719
:101A100002B0BDE8F08F00000069084018BF012047
:101A200070470000002A08BF090481617047000068
:101A300044F63430C2F200000068704740F2000003
:101A400044F63431C2F20000C2F2000100780A68A4
:101A5000104408607047000080B543F60040C4F2AF
:101A60000200016841F400710160016841F4806185
:101A70000160016841F480710160032000F0C4F846
:101A80000F2000F005F800F061F8002080BD000094
:101A900070B586B0002543F640010195C4F20201FD
:101AA0000A68044642F010020A60096801A801F0C1
:101AB000100101910199694600F066F9049E002E1B
:101AC00018BF012600F080F94DF68361B040C4F2E2
:101AD0001B31A0FB01014FF0FF3000EB914140F6BC
:101AE000481041F20002C2F20000C4F2000240F2CB
:101AF000E733C0E90021C0E902530561856100F0C8
:101B0000B7FE054610B1284606B070BD40F6481035
:101B1000C2F2000000F0DCFE05460028F3D13620BA
:101B200000F036F80F2C0DD8362021460022002573
:101B300000F03EF840F20400C2F2000004602846C3
:101B400006B070BD0125284606B070BD82B00020E9
:101B500043F640010190C4F202014A6842F4804217
:101B60004A604A6802F480420192019A0090086833
:101B7000002240F08050086008680F2100F080507B
:101B8000009000986FF0010002B000F011B8000062
:101B9000002848BF704700F01F01012202FA01F13E
:101BA0004EF200124009CEF2000242F820107047B7
:101BB00010B54EF60C5CCEF2000CDCF80030C3F32E
:101BC000022E8EF00704042C28BF0424BEF1030368
:101BD0004FF0FF3E0EFA04F438BF0023A1439940B2
:101BE0000EFA03F39A43114300F00F02043A6244E1
:101BF00009010C3200F16043B0F1FF3FC8BF03F5AB
:101C00006442117010BD00004EF60C51CEF200017E
:101C10000A684FF6FF031A4060F30A2242F0806020
:101C200040F0FD70086070472DE9F041002800F099
:101C30008B8043F60808C4F202080446D8F8F8037B
:101C40000D4600F00700884207D288F8F853D8F80C
:101C5000F80300F00700A84276D12068810717D565
:101C6000410705D5D8F8001041F4E051C8F800103C
:101C7000010705D5D8F8001041F46041C8F80010FC
:101C8000D8F80010A26821F0F0011143C8F8001044
:101C9000C0073FD1D8F8F80300F00700A84207D9E1
:101CA00088F8F853D8F8F80300F00700A8424BD1A1
:101CB0002068410707D5D8F80010E26821F4E05108
:101CC0001143C8F80010000708D5D8F800002169B2
:101CD00020F4604040EAC100C8F8000000F09CF821
:101CE000D8F800104BF22622C1F30311C0F600020F
:101CF000515C40F21C0220FA01F140F20400C2F2F1
:101D000000000068C2F200021160FFF7C1FE00206F
:101D1000BDE8F0816068811E022907D258F8081CCE
:101D200089015CBF0120BDE8F08111E0012807D1E5
:101D300058F8081C89035CBF0120BDE8F08107E06A
:101D400058F8081C890703D40120BDE8F08100BFC2
:101D5000D8F8001021F003010843C8F80000FFF78D
:101D600067FE064641F28837D8F80000616800F047
:101D70000C00B0EB810F8DD0FFF75AFE801BB842EC
:101D8000F2D90320BDE8F0810F22026043F6080279
:101D9000C4F20202136803F003034360136803F004
:101DA000F0038360136803F4E053C360D2F800C00B
:101DB0004FF4E05303EADC030361D2F8F80300F0C8
:101DC000070008607047000040F21C0043F608015D
:101DD000C2F20000C4F20201006809684BF2362228
:101DE000C1F38221C0F60002515CC8407047000078
:101DF00040F21C0043F60801C2F20000C4F20201E6
:101E0000006809684BF23622C1F34231C0F6000285
:101E1000515CC8407047000010B543F60404C4F29A
:101E20000204606800F00C0142F200400829C0F290
:101E3000F40007D0042918BF10BD41F20020C0F201
:101E40007A0010BD216801F03F0221682368490231
:101E5000C3F3881106D4A1FB00010023FEF75EFA4C
:101E600007E000BF41F20020C0F27A004843B0FB17
:101E7000F2F021680222C1F3014102EB4101B0FB03
:101E8000F1F010BD2DE9F04182B000286AD004467F
:101E9000007843F60006C007C4F202060BD0B06813
:101EA00000F00C00042840F0A1803068800302D5C7
:101EB0006068002856D0207880071AD5B06810F0E6
:101EC0000C0F09D0B06800F00C00082840F0A88082
:101ED0007068400200F1A4803068800702D5E06895
:101EE00001283FD13068216920F0F80040EAC100A4
:101EF00030602078000739D4207840074ED4A56997
:101F00005DB3B06800F00C00082840F0BD80012DE2
:101F100028D07068E16900F480028A4222D1216AE7
:101F200000F03F028A421DD147F6C071626A01404B
:101F3000B1EB821F16D1A26A0023CFF6FF7303EB29
:101F4000C23200F440316FF30F0291420AD1E16ACC
:101F500000F07060B0EB016F04D1002002B0BDE86A
:101F6000F08100BF012002B0BDE8F0816069002867
:101F700040F20000C4F2472076D00121C0F8801E54
:101F8000FFF756FD054600BF706F8007B4D4FFF71A
:101F90004FFD401B0228F7D9DDE000BF306C10F088
:101FA00080580AD100200190306C40F0805030649D
:101FB000306C00F080500190019847F20007C4F2A5
:101FC00000073868C00541D4386840F48070386034
:101FD000FFF72EFD054600BF3868C00536D4FFF771
:101FE00027FD401B0228F7D9B5E000BFB06800F01C
:101FF0000C00082803D1706840023FF556AF6068B6
:10200000B0F5803F07D0B0F5A02F40F08D8030684C
:1020100040F480203060306840F4803030608DE0E3
:10202000E068002852D00020C4F24720012101605E
:10203000FFF7FEFC054600BF306880073FF552AF52
:10204000FFF7F6FC401B0228F6D984E0A0680128BF
:1020500005D005284ED1306F40F004003067306F56
:1020600040F0010030674FE00021C0F8801EFFF70C
:10207000DFFC0546706F80077FF53EAFFFF7D8FCA9
:10208000401B0228F6D966E00027C4F2472700204B
:102090003866FFF7CDFC022D05460BD13068800174
:1020A0005ED5FFF7C5FC401B02284FF00300F5D9B1
:1020B00054E700BF306880017FF54FAFFFF7B8FCF1
:1020C000401B02284FF00300F4D947E70020C4F278
:1020D000472000210160FFF7ABFC05463068800710
:1020E0007FF507AFFFF7A4FC401B02284FF0030069
:1020F000F4D933E7316F002821F001013167316FE6
:1021000021F0040131674DD0FFF792FC054641F202
:10211000883700BF306F800756D4FFF789FC401B1B
:10212000B842F7D917E000BF3168002821F48031A8
:102130003160316821F4802131604FD0FFF778FCA5
:10214000054600BF306880033FF5B5AEFFF770FC71
:10215000401B6428F6D9032002B0BDE8F08100BF1F
:1021600004F11C052FCD08430021CFF6FF7140EA92
:10217000821001EBC3316FF30F0140EA05600843A1
:10218000706001203866FFF753FC04463068800118
:102190003FF5E3AEFFF74CFC001B02284FF00300B5
:1021A000F4D9DBE6FFF744FC054641F2883700BF6F
:1021B000306F800708D5FFF73BFC401BB8424FF05B
:1021C0000300F5D9CAE600BFB8F1000F7FF497AE5F
:1021D000306C20F08050306491E600BFFFF728FC9F
:1021E000054600BF306880037FF565AEFFF720FC31
:1021F000401B64284FF00300F4D9AFE6704700009D
:10220000B0B582B0044600684168826812F04003AD
:1022100005D112F0010518BF11F0400512D1950744
:1022200008D511F0800505D0616C204602B0BDE8EC
:10223000B040084712F4B07F18BF11F0200507D155
:1022400002B0B0BD216C204602B0BDE8B0400847E6
:10225000BBB194F85130032B08D100210191C16822
:10226000019180680190019802B0B0BD636D43F0A8
:102270000403636500230193C3680193836801939A
:10228000019B12F0200302F4807203D18AB9626DBF
:10229000DAB9D5E7636D43F0010363650023019369
:1022A00083680193036823F040030360019B002AC5
:1022B000EDD0626D42F008026265002201928268F0
:1022C0000192019A626D002ABAD04268890722F011
:1022D000E00242604FF0010284F8512020D04168B2
:1022E00043F6A15521F003014160E06CC0F6000502
:1022F00038B10565FFF78CFA18B1606D40F0400009
:102300006065A06C00289BD00565FFF781FA002866
:102310003FF496AF606D40F04000606502B0B0BD24
:10232000204602B0BDE8B040FFF768BF70B538B1D5
:102330000446406A30B10020206104F1140007E037
:10234000012070BD6068B0F5827F03D004F11C00ED
:10235000002101600026A66294F8510020B92046B1
:1023600084F8506000F03CF8022084F8510094E8B2
:102370000F0001F48271056802F4044225F0400563
:102380000560114403F400622369114403F0020262
:102390006369114403F00102A369E569114403F480
:1023A0000072114405F03802256A114405F08002DC
:1023B000A56A114305F4005211430160626A0421C9
:1023C00001EA134102F0100211444160C16921F495
:1023D0000061C1610120666584F85100304670BD1E
:1023E00080B586B0016843F20000C4F2010081426A
:1023F00002D006B080BD00BF002143F6300201913B
:10240000C4F20202536900F5504043F48053536113
:10241000536903F480530193019B0191136843F0C6
:1024200001031360126802F001020192019AE02296
:1024300001920222CDE90221032104910521059197
:1024400001A9FFF70BFA232005210022FFF7B0FBBB
:102450002320FFF79DFB06B080BD00002DE9F0436F
:1024600083B0044690F85000012803D1022003B045
:10247000BDE8F08301201E4615460F4684F8500043
:10248000FFF7D6FA94F851108146012940F0988060
:10249000002F4FF0010018BF002D00F09E80002E8D
:1024A00000F09B8094F85100002104281CBF0520F7
:1024B00084F851006165A563E687A6872763E686F1
:1024C0002068A686216461640168490603D4016816
:1024D00041F0400101606168731EE268B1FA81F168
:1024E000B3FA83F3DDF8288049095B09B2F5006F80
:1024F00041EA03017AD131B137F8021BC160276389
:10250000E08E0138E086012518F1010031D101E0AB
:10251000FFF78EFAE08E18B9E08F002800F0D08027
:102520002068816889070CD5E18E51B1012D08D151
:10253000216B002531F8022BC2602163E18E013945
:10254000E1868168C907E3D0E18F0029E0D0C06847
:10255000A16B012521F8020BA163E08F0138E08710
:10256000D6E700BFFFF764FAA0EB0900404580F012
:10257000FD80E08E18B9E08F002800F0A18020686F
:10258000816889070CD5E18E51B1012D08D1216BED
:10259000002531F8022BC2602163E18E0139E1860A
:1025A0008168C907DED0E18F0029DBD0C068A16B4C
:1025B000012521F8020BA163E08F0138E087D1E704
:1025C0006068B0F5827F07D1A06800284FF0020054
:1025D00008BF042901D15BE70220012184F85110D2
:1025E000002184F8501003B0BDE8F08339B1397888
:1025F0000173206B01302063E08E0138E0860125F5
:1026000018F1010033D101E0FFF712FAE08E10B9A2
:10261000E08F002854D02068816889070ED5E18EAC
:1026200061B1012D0AD1216B002509780173216B5D
:10263000206801312163E18E0139E1868168C90793
:10264000E2D0E18F0029DFD0C068A16B01250870BE
:10265000A06B0130A063E08F0138E087D4E700BFB2
:10266000FFF7E6F9A0EB0900404580F08180E08E9D
:1026700008B9E08F20B32068816889070ED5E18E04
:1026800061B1012D0AD1216B002509780173216BFD
:10269000206801312163E18E0139E1868168C90733
:1026A000DED0E18F0029DBD0C068A16B0125087066
:1026B000A06B0130A063E08F0138E087D0E700BF56
:1026C00040F21C00C2F20000006849F68171C1F2BC
:1026D0005E61A0FB0101480D4FF47A7148430290FE
:1026E0006068B0F5827F0FD12046802142464B467C
:1026F00001F05CFB60B3606D40F02000606520205D
:102700006065012069E700BF029808B302980138AC
:1027100002902068806800061AD50298C0B102981D
:102720000138029020688068000611D5029878B1BF
:1027300002980138029020688068000608D5029847
:1027400030B1029801380290206880680006DBD41E
:10275000A06800284FF000007FF43FAF019021688F
:10276000CA68019289680191019936E7032034E72C
:10277000032032E7002804BF0120704770B50446EB
:1027800090F8490015460E4628B9002084F8480004
:10279000204600F01DF8206804F10801FEF7D2FF82
:1027A0002068A2683146FFF711F8D4E90102236BD3
:1027B0002946FEF7A1FF2068A16850F8212042F0C9
:1027C000010240F82120012084F84900002070BD5A
:1027D0002DE9F04786B040F22420C2F200000178D3
:1027E00000293ED14FF0010880F800804FF0000929
:1027F00043F63800CDF80490C4F20200016840F6B8
:10280000004441F0010101600068C4F2020400F0DC
:102810000100019001984FF6807001AD01904FF0DA
:10282000020A03270C2604F580602946CDE902A997
:1028300004970596FFF712F84EF28370CDE9010A6E
:1028400020462946CDE903970596FFF707F8302083
:10285000CDE9010A20462946CDE903870596FEF712
:10286000FDFF06B0BDE8F08770470000704700002C
:10287000002804BF0120704710B5044690F83D00C1
:1028800028B9002084F83C00204600F01FF8022000
:1028900084F83D002068211D01F0A6FB012084F88A
:1028A000460084F83E0084F83F0084F8400084F835
:1028B000410084F8420084F8430084F8440084F81E
:1028C000450084F83D00002010BD00007047000066
:1028D00090F83D1001291CBF01207047022180F8AB
:1028E0003D10006841F2FF72C168C4F200029042DC
:1028F00041F00101C1600DDC40F2FF71C4F2000142
:10290000884215DCB0F1804F2AD040F20041C4F279
:10291000000123E040F2FF31C4F20101884213DCE0
:1029200041F60001C4F20001884219D0002113E0F1
:1029300040F60001C4F20001884211D040F6004187
:10294000C4F200010AE000BF44F20001C4F2010138
:10295000884205D040F20041C4F20101884206D10C
:10296000816801F00701062904BF00207047016853
:1029700041F0010101600020704700007047000035
:1029800010B5016804460869800744BFC8685FEA5B
:10299000807039D40869400744BFC8685FEA407056
:1029A0003ED40869000744BFC8685FEA007045D498
:1029B0000869C00644BFC8685FEAC0604AD40869B5
:1029C000C0071CBFC8685FEAC07051D10869000623
:1029D00044BFC8685FEA006052D40869400644BF3B
:1029E000C8685FEA406053D40869800646BFC8687B
:1029F0005FEA806010BD6FF0200220460A61BDE8EA
:102A00001040FFF733BF00BF6FF0020008610120E4
:102A100020778869800743D02046FFF7AFFF45E065
:102A20006FF00400086102202077886910F4407F6D
:102A300040D02046FFF7A2FF42E000BF6FF0080041
:102A4000086104202077C86980073DD02046FFF741
:102A500095FF3FE06FF01000086108202077C869FB
:102A600010F4407F3AD02046FFF788FF3CE000BFDB
:102A70006FF001000861204600F03EF82168A5E7EC
:102A80006FF0800008612046FFF7EEFE2168A4E7A2
:102A90006FF040000861204600F038F82168A3E795
:102AA000204600F025F8204600F024F82168002098
:102AB00020776FE7204600F01BF8204600F01AF858
:102AC0002168002020776CE7204600F011F82046AE
:102AD00000F010F821680020207769E7204600F018
:102AE00007F8204600F006F821680020207766E706
:102AF0007047000070470000006841F20001C4F216
:102B00000001884208BFFEF799BF70477047000078
:102B1000002804BF0120704710B5044690F83D001E
:102B200028B9002084F83C00204600F021F8242039
:102B300084F83D002068C16821F40051C16020463E
:102B400001F0F0FA2068016921F4904101614169C6
:102B500021F02A014161C16841F40051C1600020A7
:102B60002021206484F83D1084F83E1010BD000040
:102B700080B586B0016844F60040C4F2000081428E
:102B800002D006B080BD00BF002143F630020191A3
:102B9000C4F20202136900F5DA3043F40023136132
:102BA000136903F400230193019B0191136843F01F
:102BB000010313601268022302F001020192019ADC
:102BC000CDE9023108210322059101A90192049265
:102BD000FEF744FE06B080BDFEE7000070B540F68B
:102BE0000004C4F20204204601210122FEF71AFF6C
:102BF000204602210122FEF715FF20460421012272
:102C0000FEF710FF40F22525C2F20005287820B912
:102C1000204608210122FEF705FF2046012100225F
:102C20000026FEF7FFFE20461021FEF7F5FEB0B1AC
:102C300020462021FEF7F0FE70B120464021FEF72D
:102C4000EBFE58B1287898B920468021FEF7E4FEC3
:102C500070B9032603E000BF012600E0022640F21F
:102C60000800C2F2000010F82600FF2840F084801F
:102C7000204601210122FEF7D5FE20460221012235
:102C8000FEF7D0FE204604210122FEF7CBFE287875
:102C900020B9204608210122FEF7C4FE2046022169
:102CA00000220026FEF7BEFE20461021FEF7B4FEED
:102CB000A8B120462021FEF7AFFE68B12046402192
:102CC000FEF7AAFE50B1287890B920468021FEF781
:102CD000A3FE68B9032602E0012600E0022640F2C6
:102CE0000800C2F2000000EB86004078FF2843D1C4
:102CF000204601210122FEF795FE204602210122F5
:102D0000FEF790FE204604210122FEF78BFE287874
:102D100020B9204608210122FEF784FE2046042126
:102D200000220026FEF77EFE20461021FEF774FEEC
:102D3000A8B120462021FEF76FFE68B12046402151
:102D4000FEF76AFE50B12878A8B920468021FEF728
:102D500063FE70B9032602E0012600E0022640F27D
:102D60000800C2F2000000EB86008078FF2818BF40
:102D700070BD287810B1FF2070BD00BF2046012132
:102D80000122FEF74FFE204602210122FEF74AFEF5
:102D9000204604210122FEF745FE287820B920466E
:102DA00008210122FEF73EFE2046082100220026CF
:102DB000FEF738FE20461021FEF72EFEB8B1204661
:102DC0002021FEF729FE78B120464021FEF724FE9F
:102DD00060B128780028CED120468021FEF71CFE65
:102DE0000028C8D1032602E0012600E0022640F2B6
:102DF0000800C2F2000000EB8600C078FF2808BF80
:102E0000FF2070BDB0B540F6000440F22525C4F2A5
:102E10000204C2F200052870204601210122FEF7BB
:102E200001FE204602210122FEF7FCFD204604217E
:102E30000122FEF7F7FD2878002818BFB0BD204614
:102E400008210122BDE8B040FEF7ECBD40F21801B8
:102E5000C2F200010878FF220A70704710B540F2F4
:102E60002621C2F20001088840F21804421C90B2E8
:102E7000C2F20004642820780A8007D3FF2818BF14
:102E800010BD00200880FFF7A9FE207010BD0000D3
:102E90002DE9F04F8AB0012AC0F22082DDE913B794
:102EA0004FF478464FF4FC6506EA172605EA5715F5
:102EB0002E44C7F3C4070BFB0BF43E4403F0020798
:102EC000039703F00807651E03F00409029703F057
:102ED000010300274FF00008079504F00305ABF14C
:102EE000010E0193C6F20807A8EB4203C2F1010AE2
:102EF000CDE9084524F0030501240495CDF80090A0
:102F00000AE000BF059B94451CB204F10204069B35
:102F1000A244E04680F2E2810FFA8AF5B5F1FF3F64
:102F20006FEAD5352A4408F10105059403F102043E
:102F3000C4BFA244234612B2B9F1000F0FFA85FCB8
:102F4000069377D00CEB00044FF0C0432A25C3440E
:102F50001D70250A3D700BEB00053C702C0A3C707F
:102F60005418814670468E463D702B21250A1970F3
:102F70003D7005193C702C0A3C703D700146089864
:102F800000284FF02C00187016D00798032807D39C
:102F9000049D00BF043D3E803E803E803E80F9D1CE
:102FA000099848B109983E80012805D009983E80CB
:102FB000022818BF3E8000BF02EB09044FF0C04357
:102FC0002A20250A18703D700D193C702C0A704695
:102FD0003C700CEB00048E463D702B21250A1970C5
:102FE0003D700BEB00053C702C0A3C703D7008995D
:102FF000DDF84CB000294FF02C011970014648460D
:10300000DDF8009016D0079B032B07D3049D00BF6B
:10301000043D3E803E803E803E80F9D1099C4CB10B
:10302000099C3E80012C05D0099C3E80022C18BFD3
:103030003E8000BF039C002C6CD00CEB00044FF0D2
:10304000C0432A251D70250A3D7008EB00055D442C
:103050003C702C0A3C708C1A3D702B251D70250A83
:103060003D700EEB04053C702C0A3C703D70089CD2
:10307000002C4FF02C041C7016D0079B032B07D399
:10308000049D00BF043D3E803E803E803E80F9D1DD
:10309000099C4CB1099C3E80012C05D0099C3E80C6
:1030A000022C18BF3E8000BF14184FF0C0432A25E1
:1030B0001D70250A3D700EEB04053C702C0A3C7017
:1030C000A1EB0C043D702B251D70250A3D700EEB05
:1030D00004053C702C0A3C703D70089C002C4FF09D
:1030E0002C041C7016D0079B032B07D3049D00BF34
:1030F000043D3E803E803E803E80F9D1099C4CB12B
:10310000099C3E80012C05D0099C3E80022C18BFF2
:103110003E8000BF029C002C6CD0841A4FF0C0434C
:103120002A251D70250A3D700EEB04053C702C0A03
:103130003C700CEB01043D702B251D70250A3D7081
:1031400008EB01055D443C702C0A3C703D70089C06
:10315000002C4FF02C041C7016D0079B032B07D3B8
:10316000049D00BF043D3E803E803E803E80F9D1FC
:10317000099C4CB1099C3E80012C05D0099C3E80E5
:10318000022C18BF3E8000BFA0EB0C044FF0C043E0
:103190002A251D70250A3D700EEB04053C702C0A93
:1031A0003C7054183D702B251D70250A3D700EEBA8
:1031B00004053C702C0A3C703D70089C002C4FF0BC
:1031C0002C041C7016D0079B032B07D3049D00BF53
:1031D000043D3E803E803E803E80F9D1099C4CB14A
:1031E000099C3E80012C05D0099C3E80022C18BF12
:1031F0003E8000BF019C002C3FF484AE841A4FF047
:10320000C0432A251D70250A3D700EEB04053C7055
:103210002C0A3C70A1EB0C043D702B251D70250A77
:103220003D700EEB04053C702C0A3C703D70089C10
:10323000002C4FF02C041C7016D0079B032B07D3D7
:10324000049D00BF043D3E803E803E803E80F9D11B
:10325000099C4CB1099C3E80012C05D0099C3E8004
:10326000022C18BF3E8000BFA0EB0C044FF0C043FF
:103270002A251D70250A3D700EEB04053C702C0AB2
:103280003C708C1A3D702B251D70250A3D700EEB8D
:1032900004053C702C0A3C703D70089C002C4FF0DB
:1032A0002C041C703FF42EAE079B032B06D3049D09
:1032B000043D3E803E803E803E80F9D1099B002B3C
:1032C0003FF420AE099B3E80012B3FF41BAE099BCF
:1032D0003E80022B18BF3E8014E600BF0AB0BDE856
:1032E000F08F00002DE9F04F88B0B2EB000C1746CC
:1032F000019248BFCCF1000C5A1A82EAE27492465D
:1033000048BFC2F1000AC4EBE2720792019A119D14
:1033100082424FF0FF324FF0FF3488BF012240F26B
:10332000000E05928B4288BF012405FB05F2C6F210
:10333000080E0694ACEB0A04002AA5F1010575D02D
:10334000CDE903A3129B4FF478464FF4FC6706EADD
:10335000132607EA53173E44C3F3C4031E44531E07
:1033600002F0030822F003024FF0C04B02930092D8
:1033700010E000BF079BB3EB440F059BB8BF184498
:103380002346B8BF9B1ABCEB440F069AC4BF114436
:1033900063441C462B182A224FEA102A1F0A05EB09
:1033A00001098BF800208EF800A08EF800008EF83E
:1033B00000708EF800302B220B0A8BF800208EF85C
:1033C00000304FEA19238EF800108EF800308EF886
:1033D0000090029A032A4FF02C028BF800200BD3A6
:1033E000009B00BF043BAEF80060AEF80060AEF892
:1033F0000060AEF80060F5D1049FB8F1000F0BD06B
:10340000B8F1010FAEF8006006D0B8F1020FAEF8C7
:10341000006018BFAEF800608BB2039ABB42A9D11E
:10342000019F83B2BB42A5D13EE000BF4FF0C0492F
:103430004FF02A0B10E000BF079A2646B2EB440F6C
:10344000059ABCBF1044A6EB0A06BCEB440F069AD3
:10345000C4BF1144664434462A18060A89F800B0ED
:103460008EF80060160A8EF800008EF800608EF864
:1034700000202B2205EB010889F800200A0A8FB2F0
:103480008EF800204FEA18228EF800108EF80020E7
:103490009F424FF02C028EF8008089F80020CBD19B
:1034A000019E82B2B242C7D108B0BDE8F08F0000E1
:1034B00070B540F2000C00EB020E4FF0C0452A261A
:1034C000C6F2080CAEF1010E2E70060A8CF80060F0
:1034D0008CF800004FEA1E20CC188CF800002B203E
:1034E000013C8CF800E02870080A8CF80000200AE3
:1034F0005A438CF800108CF800002C208CF8004007
:10350000287052B304984FF478414FF4FC6301EAF9
:10351000102103EA50131944C0F3C4000844511E9B
:10352000032902F003010BD322F00302043AACF8A2
:103530000000ACF80000ACF80000ACF80000F5D1D9
:10354000002908BF70BD0129ACF8000005D0022990
:10355000ACF8000018BFACF8000070BD2DE9F04FCA
:1035600083B00DF1300B98469BE8080C02EB000984
:103570000D460446191809EB0A00C01A8FB286B22C
:1035800002913846294632462B46CDF800A0CDF8A8
:1035900004B0FFF7A7FEA844A8F1010081B23846A5
:1035A00032460B46CDF800A0CDF804B0FFF79AFEE6
:1035B0000C98224647195044A8EB000085B2BEB2D1
:1035C000204631462B46CDF800A0CDF804B0FFF7D9
:1035D00089FEA9F1010080B2314602462B46CDF8A2
:1035E00000A0CDF804B05C46FFF77CFE02983EB226
:1035F0000C9F0FFA80FB3DB2584631462A46012304
:10360000CDF800A00194FFF743FCFC4309EB040054
:1036100007B231460E9E38462A460223CDF800A056
:103620000196FFF735FC08EB040006B238460E9F02
:1036300031462A460423CDF800A00197FFF728FC65
:10364000584631462A460823CDF800A00197FFF7D7
:103650001FFC03B0BDE8F08F10B540F2CC14C2F2ED
:10366000000440F22000611CC2F20000FEF71EF8C8
:10367000207010BDFEE70000FEE700000000000023
:10368000EFF30980BFF36F8F154B1A681EF0100F10
:1036900008BF20ED108A20E9F04F10602DE90900E5
:1036A0004FF0500080F31188BFF34F8FBFF36F8F3F
:1036B00006F0C6FB4FF0000080F31188BDE809005A
:1036C00019680868B0E8F04F1EF0100F08BFB0ECA2
:1036D000108A80F30988BFF36F8F704700BF00BF67
:1036E000F000002080B582B08DF8070040F6A00001
:1036F0004FF47A7CC2F200000DF107010DF10602D1
:103700000123CDF800C0FEF7A9FE9DF8060002B027
:1037100080BD00002DE9F04786B081464FF0FF30B4
:1037200089F80400C9F8000041F040008DF810004D
:10373000100E8DF81100100C40F200088DF81200E8
:10374000100AC4F202088DF8130043F001000E9C29
:103750008DF814208DF81500404610210122FEF747
:1037600061F940F6A0004FF47A77C2F2000004A994
:103770000DF10A0206230097FEF770FE052C00F2F9
:103780000683DFE814F0E500370285010700040333
:10379000070000BF40F6A000FF244FF47A76C2F283
:1037A00000000DF117010DF1160201238DF81740ED
:1037B0000096FEF753FE9DF81600FF2840F0858026
:1037C00040F6A000C2F200000DF117010DF1160243
:1037D00001238DF817400096FEF740FE9DF8160075
:1037E000FF2872D140F6A000FF274FF47A75C2F28D
:1037F00000000DF117010DF1160201238DF817706D
:103800000095FEF72BFE9DF81600FF285DD140F6CF
:10381000A000C2F200000DF117010DF11602012304
:103820008DF817700095FEF719FE9DF81600FF2819
:103830004BD140F6A000FF274FF47A75C2F200008A
:103840000DF117010DF1160201238DF81770009587
:10385000FEF704FE9DF81600FF2836D140F6A000C2
:10386000C2F200000DF117010DF1160201238DF8CF
:1038700017700095FEF7F2FD9DF81600FF2824D181
:1038800040F6A000FF274FF47A75C2F200000DF158
:1038900017010DF1160201238DF817700095FEF740
:1038A000DDFD9DF81600FF280FD140F6A000C2F202
:1038B00000000DF117010DF1160201238DF81770AC
:1038C0000095FEF7CBFD9DF8160040F6A005C2F26C
:1038D000000589F800000DF117010DF116022846C8
:1038E00001238DF817400096FEF7B8FD9DF81600ED
:1038F0000DF1170189F801000DF116022846012388
:103900008DF817400096FEF7A9FD9DF816000DF101
:10391000170189F802000DF11602284601238DF8DF
:1039200017400096FEF79AFD9DF816000DF117015D
:1039300089F803000DF11602284601238DF817407F
:103940000096FEF78BFD9DF8160089F804001EE234
:1039500040F6A000FF254FF47A74C2F200000DF18A
:1039600017010DF1160201238DF817500094FEF790
:1039700075FD9DF81600FF2840F0858040F6A000F8
:10398000C2F200000DF117010DF1160201238DF8AE
:1039900017500094FEF762FD9DF81600FF2872D1C3
:1039A00040F6A000FF254FF47A74C2F200000DF13A
:1039B00017010DF1160201238DF817500094FEF740
:1039C0004DFD9DF81600FF285DD140F6A000C2F223
:1039D00000000DF117010DF1160201238DF81750AB
:1039E0000094FEF73BFD9DF81600FF284BD140F6F2
:1039F000A000FF254FF47A74C2F200000DF1170108
:103A00000DF1160201238DF817500094FEF726FDE4
:103A10009DF81600FF2836D140F6A000C2F2000043
:103A20000DF117010DF1160201238DF817500094C6
:103A3000FEF714FD9DF81600FF2824D140F6A000E3
:103A4000FF254FF47A74C2F200000DF117010DF159
:103A5000160201238DF817500094FEF7FFFC9DF825
:103A60001600FF280FD140F6A000C2F200000DF1B1
:103A700017010DF1160201238DF817500094FEF77F
:103A8000EDFC9DF8160089F8000006B0BDE8F0874F
:103A900040F6A000FF254FF47A74C2F200000DF149
:103AA00017010DF1160201238DF817500094FEF74F
:103AB000D5FC9DF81600FF2840F0858040F6A00058
:103AC000C2F200000DF117010DF1160201238DF86D
:103AD00017500094FEF7C2FC9DF81600FF2872D123
:103AE00040F6A000FF274FF47A76C2F200000DF1F5
:103AF00017010DF1160201238DF817700096FEF7DD
:103B0000ADFC9DF81600FF285DD140F6A000C2F282
:103B100000000DF117010DF1160201238DF8177049
:103B20000096FEF79BFC9DF81600FF284BD140F64F
:103B3000A000FF274FF47A76C2F200000DF11701C2
:103B40000DF1160201238DF817700096FEF786FC22
:103B50009DF81600FF2836D140F6A000C2F2000002
:103B60000DF117010DF1160201238DF81770009663
:103B7000FEF774FC9DF81600FF2824D140F6A00043
:103B8000FF274FF47A76C2F200000DF117010DF114
:103B9000160201238DF817700096FEF75FFC9DF862
:103BA0001600FF280FD140F6A000C2F200000DF170
:103BB00017010DF1160201238DF817700096FEF71C
:103BC0004DFC9DF8160089F8000040F6A000C2F2F6
:103BD00000000DF117010DF1160201238DF81750A9
:103BE0000094FEF73BFC9DF8160089F8010006B032
:103BF000BDE8F08740F6A0004FF0FF0A4FF47A745A
:103C0000C2F200000DF117010DF1160201238DF82B
:103C100017A00094FEF722FC9DF81600FF2840F044
:103C2000858040F6A000C2F200000DF117010DF1F1
:103C3000160201238DF817A00094FEF70FFC9DF8E3
:103C40001600FF2872D140F6A000FF264FF47A75C7
:103C5000C2F200000DF117010DF1160201238DF8DB
:103C600017600095FEF7FAFB9DF81600FF285DD15E
:103C700040F6A000C2F200000DF117010DF116028E
:103C800001238DF817600095FEF7E8FB9DF81600FC
:103C9000FF284BD140F6A000FF264FF47A75C2F200
:103CA00000000DF117010DF1160201238DF81760C8
:103CB0000095FEF7D3FB9DF81600FF2836D140F69D
:103CC000A000C2F200000DF117010DF11602012350
:103CD0008DF817600095FEF7C1FB9DF81600FF28D0
:103CE00024D140F6A000FF264FF47A75C2F20000FE
:103CF0000DF117010DF1160201238DF817600095E3
:103D0000FEF7ACFB9DF81600FF280FD140F6A0008F
:103D1000C2F200000DF117010DF1160201238DF81A
:103D200017600095FEF79AFB9DF8160040F6A00676
:103D3000C2F200060DF117070DF1160589F8000013
:103D4000304639462A4601238DF817A00094FEF725
:103D500085FB9DF81600102189F8010040460022DD
:103D6000FDF760FE0120FDF765FD404610210122B0
:103D7000FDF758FE304639462A4601238DF817A034
:103D80000094FEF76BFB9DF81600FF28F2D106B0F9
:103D9000BDE8F08740F6A000C2F20000FEF730BA9E
:103DA000806B0021C187C186FEF728BA2DE9F0415A
:103DB00082B01E4690460D460446FDF739FE301A85
:103DC00000EB0807FDF734FE40F21C01C2F20001CF
:103DD0000968C1F3CB317943019121688A682A408F
:103DE000AA4227D1064618F101001FD0FDF720FE98
:103DF000801BB84222D2019801990028A1F101014B
:103E000001912168896808BF074601EA0500A842B8
:103E1000ECD00FE088682840A8420BD18868284081
:103E2000A84207D188682840A84203D18868284062
:103E3000A842EFD0002002B0BDE8F081D4E9000133
:103E40004268B1F5827F22F0E00242600AD1A168A7
:103E5000B1F5004F02D0B1F5806F03D1016821F0B8
:103E600040010160A16AB1F5005F07D1016821F44A
:103E700000510160016841F400510160012084F8A3
:103E80005100002084F85000032002B0BDE8F0810A
:103E9000074B19680868B0E8F04F80F30988BFF352
:103EA0006F8F4FF0000080F31188704700BF00BF94
:103EB000F000002082B004F0A3FF40F29C06FF2532
:103EC000C2F200060DF107048DF8075003E000BFB1
:103ED000012003F03BFE706821460022C82303F056
:103EE00077FE0028F4D19DF80700FF28F0D004F0F9
:103EF00077FE8DF80750EBE780B54EF21000CEF25A
:103F00000000006806F04EFF012808BF80BDBDE834
:103F1000804006F0B5B80000B0B592B0002443F67A
:103F20004000CDE90A44CDE908440594CDE90344B5
:103F3000CDE901440094C4F202000168022541F079
:103F400080510160006800F080500090009847F2B6
:103F500000000094C4F20000016841F48041016057
:103F6000006800F4804000900098012006904FF413
:103F7000803007904FF480000D9004200E90A82010
:103F8000CDE90F050720119006A80C95FDF77AFFE3
:103F900020B1EFF3108072B6FEE700BF0F20CDE92D
:103FA00001054FF4A05004904FF48050059001A8F3
:103FB00005210394FDF738FE20B1EFF3108072B6AF
:103FC000FEE700BF12B0B0BD4EF68850CEF2000042
:103FD000016841F4700101607047000040F648102C
:103FE000C2F20000FEF7CCBC10B540F6FF3E0368FD
:103FF000C4F2000E40F2004C7045C4F2010C27DC04
:10400000B0F1804F31D040F20042C4F20002904241
:104010002BD040F60002C4F20002904225D041F6B7
:10402000FF72C4F20002904229DC70453CDCB0F122
:10403000804F5FD040F20042C4F20002904259D05B
:1040400040F60002C4F20002904253D056E000BF96
:1040500040F60042C4F20002904206D0604504D00F
:104060000022C4F201029042D9D14A6823F07003C1
:10407000134341F6FF72C4F200029042D5DD43F6CD
:10408000FF72C4F20102904222DC42F20002C4F24A
:10409000000290422ED00022C4F20102904229D0A8
:1040A000604527D02AE000BF40F60042C4F200027B
:1040B00090421FD041F60002C4F20002904219D093
:1040C00041F60042C4F20002904213D016E000BF55
:1040D00044F20002C4F2010290420BD044F6000206
:1040E000C4F20102904205D044F20042C4F201023F
:1040F000904203D1CA6823F44073134323F0800233
:104100004B69D1F800E08C681A430260C46240F445
:104110008062C0F828E0624504BF0969016301219B
:10412000416110BD10B504460068D4E902C223699C
:10413000016921F4405111430161626943EA0C01B4
:10414000E3691143C268194349F20C639A4311436E
:10415000C1604169A26921F4407141F200431143F9
:1041600040F48062C4F201039A42416102D1FDF73A
:104170003FFE01E0FDF728FEE16963681922B1F511
:10418000004FA0FB02011FD15A00DB0FFCF7C6F85D
:1041900048F21F51C5F2EB11A0FB01235A096FF041
:1041A000630302FB0300322303EBC000A0FB010109
:1041B0004FF4F87000EA111000EB0210C1F3421145
:1041C00008442168886010BD9A009B0FFCF7A6F890
:1041D00048F21F51C5F2EB11A0FB01235A096FF001
:1041E000630302FB0300322303EB0010A0FB010179
:1041F000F02000EA511000EB0210C1F34311084413
:104200002168886010BD0000B0B540F21904C2F208
:10421000000401252570FCF7BBFE08B12078B0BD75
:104220002570FCF789FE18B1207820702078B0BD89
:10423000207800F0FE002070207820702078B0BD3B
:1042400010B590B040F21900C2F200000078C0072B
:104250000ED1032910D814460020DFE801F00E0328
:10426000111900BF6846FCF797FA0E9815E000BFD9
:10427000032010B010BD00BF042010B010BD00BF5F
:104280006846FCF789FA0F982080002010B010BD16
:104290006846FCF781FA0F98400A2060002010B0B1
:1042A00010BD000080B59C464EF200130846C0F2D7
:1042B000F55311466246FCF7D3FF00281CBF0120CE
:1042C00080BD00BFFCF738FE0028FBD1002080BD78
:1042D00010B540F21904C2F2000401202070FCF76E
:1042E0002BFE08B1207810BD207800F0FE00207071
:1042F000207810BD80B59C464EF200130846C0F2EF
:10430000F55311466246FDF7A3F800281CBF0120B3
:1043100080BD00BFFCF710FE0028FBD1002080BD4F
:10432000FEE700002DE9F047D0F8008089460746F7
:10433000A1B14046494603F05DF902283CBF012087
:10434000BDE8F0870446013048D0D8F81C00CA46C2
:1043500084420CD22046BDE8F08700BFD8F814A0F4
:10436000BAF1000F1ED0D8F81C0082451AD2BAF15B
:10437000020F08F11C0517D3564600BF2868013606
:104380008642386828BF0226314603F033F90446D6
:104390000130DFD034B3012CDCD056454FF000049F
:1043A000ECD1D7E708F11C05286803283CBF0020A2
:1043B000BDE8F087022600BF3868314603F01AF9DD
:1043C00004460130C6D06CB1012CC3D02868013638
:1043D0008642F1D30020BDE8F08700BF4FF0FF30E8
:1043E000BDE8F087404631464FF0FF32344604F0D6
:1043F0004BFAB9F1000F05D020B940464946224694
:1044000004F042FA40B10124012808BF4FF0FF3404
:104410002046BDE8F08700BFD8E90601C8F814407F
:10442000023988429CBF0138C8F8180098F8040087
:1044300040F0010088F804002046BDE8F087000045
:104440002DE9F04F83B08168D0F800A00446002029
:104450006061B9B1BAF80A60E6B3DAF81C00002668
:104460008A1E0238824253D2BAF80A00DAF8303093
:1044700002FB0030A161E061C0B9022003B0BDE8D9
:10448000F08F00BF9AF80000032803D3DAF82C104D
:104490000029DFD1BAF808000028EED0DAF82C00A5
:1044A000002600210028A161E061E6D000EB562142
:1044B0006FF35F260AEB06003830C4E907104FF0AF
:1044C000FF385046C4F8308003F0F6FA40B303B02A
:1044D000BDE8F08F504603F08DF80146013013D04F
:1044E00000207502A0EB46260229C6D3DAF81C008C
:1044F0008142C2D2AE42B3D3206803F07BF80146BA
:104500000130A6EB0506EFD1012003B0BDE8F08F26
:104510000020C4E90610022003B0BDE8F08F00BF00
:10452000FF204FF0FF0B02900FE000BF3089B0EB8F
:10453000571F40F2BF8200BF7019383020625046CA
:10454000676103F0B9FA0028C1D1D4F8209099F836
:104550000000002800F0B08299F80B20E52802F056
:104560003F01A17103D0120740D50F293ED0C4F8F6
:1045700030804FF0FF0BE16904200029A7D0626969
:1045800002F120074FF6FF72C0F21F0297429ED839
:104590003D4626686FF35F25002DCDD1A26901311C
:1045A000002AE161C2D070894FF6FF73C0F21F0389
:1045B000184400F5C00010EA572FBDD1304611460F
:1045C00003F018F80228FFF458AF411C9CD0F169A1
:1045D000884280F06F82821E02398A42A06180F098
:1045E000B9807089316B02FB0011B4E00F290DD145
:1045F00094F82F104906BED4410600F1AF805FFA4F
:104600008BF18842B5D10299AFE000BF5FEA0B6041
:104610004CD199F8000099F80110470847EAC010FA
:1046200099F802200844C0B202EBC01199F8033097
:1046300001EB5000C0B203EBC01101EB500099F840
:104640000410C0B201EBC01101EB500099F8051045
:10465000C0B201EBC01101EB500099F80610C0B2D6
:1046600001EBC01101EB500099F80710C0B201EB4B
:10467000C01101EB500099F80810C0B201EBC01155
:1046800001EB500099F80910C0B201EBC01101EB29
:104690005000C0B2410899F80A2041EAC0100299BE
:1046A0001044C0B2C9B2814200F00A8294F82F00CF
:1046B000C0077FF45CAF99F8000094F8241088429A
:1046C0007FF455AF99F8010094F8251088427FF4E3
:1046D0004EAF99F8020094F8261088427FF447AF55
:1046E00099F8030094F8271088427FF440AF99F8B6
:1046F000040094F8281088427FF439AF99F8050037
:1047000094F8291088427FF432AF99F8060094F8A3
:104710002A1088427FF42BAF99F8070094F82B10E9
:1047200088427FF424AF99F8080094F82C1088424E
:104730007FF41DAF99F8090094F82D1088427FF49A
:1047400016AF99F80A0094F82E1088427FF40FAF44
:10475000B6E100BF0021E161EEE600BF99F80D204F
:10476000616900F0BF0B2163114699F80D000A46FC
:104770000291C9B281427FF4FCAEB9F81A00002858
:104780007FF4F7AE99F800000D2100F03F00484398
:10479000A0F10D05FE2D3FF6ECAEB9F801600190D9
:1047A000DAF80C70304602F0B7F837F815100097B9
:1047B0000746084602F0B0F887427FF4DAAEB9F84F
:1047C0000370002E00F020810198A0F10C05FE2D51
:1047D0003FF6CFAE384602F09FF80099064631F812
:1047E0001510084602F098F886427FF4C2AEB9F878
:1047F0000560002F00F00F810198A0F10B05FE2D40
:104800003FF6B7AE304602F087F80099074631F818
:104810001510084602F080F887427FF4AAAEB9F876
:104820000770002E00F0FE800198A0F10A05FE2D11
:104830003FF69FAE384602F06FF80099064631F811
:104840001510084602F068F886427FF492AEB9F877
:104850000960002F00F0ED800198A0F10905FE2D00
:104860003FF687AE304602F057F80099074631F818
:104870001510084602F050F887427FF47AAEB9F876
:104880000E70002E00F0DC800198A0F10805FE2DCE
:104890003FF66FAE384602F03FF80099064631F811
:1048A0001510084602F038F886427FF462AEB9F877
:1048B0001060002F00F0CB800198C51FFE2D3FF641
:1048C00058AE304602F028F80099074631F8151026
:1048D000084602F021F887427FF44BAEB9F8127017
:1048E000002E00F0BB800198851FFE2D3FF641AEE3
:1048F000384602F011F80099064631F815100846BE
:1049000002F00AF886427FF434AEB9F81460002F42
:1049100000F0AB800198451FFE2D3FF62AAE3046D1
:1049200001F0FAFF0099074631F81510084601F02A
:10493000F3FF87427FF41DAEB9F81670002E00F029
:104940009B800198051FFE2D3FF613AE384601F0FF
:10495000E3FF0099064631F81510084601F0DCFF28
:1049600086427FF406AEB9F81860002F00F08B8005
:104970000198C51EFE2D3FF6FCAD304601F0CCFF80
:104980000099074631F81510084601F0C5FF874227
:104990007FF4EFADB9F81C70002E7BD00198851E16
:1049A000FE2D3FF6E6AD384601F0B6FF009906460B
:1049B00031F81510084601F0AFFF86427FF4D9ADFB
:1049C000B9F81E60002F6CD00198451EFE2D3FF6F1
:1049D000D0AD304601F0A0FF0099074631F8151020
:1049E000084601F099FF87427FF4C3AD99F80000B3
:1049F00040065BD5002E59D0DDE9001031F81000DB
:104A000000287FF4B6AD51E04FF6FF7087427FF487
:104A1000B0ADB9F805604FF6FF7086427FF4A9ADDE
:104A2000B9F807704FF6FF7087427FF4A2ADB9F86E
:104A300009604FF6FF7086427FF49BADB9F80E70A7
:104A40004FF6FF7087427FF494ADB9F810604FF6CF
:104A5000FF7086427FF48DADB9F812704FF6FF708B
:104A600087427FF486ADB9F814604FF6FF70864236
:104A70007FF47FADB9F816704FF6FF7087427FF470
:104A800078ADB9F818604FF6FF7086427FF471ADCB
:104A9000B9F81C704FF6FF7087427FF46AADB9F821
:104AA0001E604FF6FF7086427FF463ADABF1010BE1
:104AB00061E500BF0020E061042003B0BDE8F08F95
:104AC000002003B0BDE8F08F2DE9F04F81B004461F
:104AD000C0690425B8B10F4661694FF6FF72C0F294
:104AE0001F0201F1200696420DD8B246D4F800907C
:104AF0006FF35F2ABAF1000F0AD009EB0A003830D1
:104B0000666120620025E8B201B0BDE8F08F00BF09
:104B1000A1690130E06189B1B9F80A00104400F5DB
:104B2000C00010EA562FE8D1484602F063FD022883
:104B300010D20225E8B201B0BDE8F08FB9F8080044
:104B4000B0EB561FD9D80020E0610425E8B201B0CF
:104B5000BDE8F08F8046013030D0D9F81C00804588
:104B60000ED2A8F1020B02388345C4F8188062D235
:104B7000B9F80A00D9F830100BFB00105CE000BF58
:104B8000002FE0D0A1692046FFF7CCFB8046013022
:104B900003280FD24FF6F871C0F2FF0101EAC000FE
:104BA00040F20171C0F2020121FA00F5E8B201B051
:104BB000BDE8F08F484604F0C1FC28B10125E8B2F9
:104BC00001B0BDE8F08F00BF09F138004FF400716B
:104BD000FBF769FCD9F81C00A8F1020B811EB9F89B
:104BE0000A208B4504D2D9F830100BFB021100E0EB
:104BF00000214FF00007C9F83410A2B10125484642
:104C000089F8035004F09AFC00287FF47CAFD9F8AF
:104C10003400B9F80A200137411C9742C9F8341012
:104C2000EDD3D9F81C00C91BC9F8341002388345EC
:104C3000C4F818809CD30020E0615EE72DE9F04FB6
:104C40008FB090F82F7017F0A00F03D006200FB090
:104C5000BDE8F08FD0F800A00446DAF80C0000257B
:104C6000062100BF421832F8062C92B100EB450233
:104C700053886BB19288CAB3425A0435002A01F1B5
:104C80000801EFD1013DF807564605D032E000BFDC
:104C90000135F80756462DD14EF64F4105F10C006F
:104CA000C4F6C461A0FB0101012000EB9108B80724
:104CB00058BF4FF00108A16800200029606100F092
:104CC000F9817789002F00F07582F06900278A1E2C
:104CD0000238824280F090827089336B02FB003090
:104CE0000028A161E06140F0F881E3E30235F807B4
:104CF0005646D1D094F8240094F82E800B9094F866
:104D0000250041F221090A9094F82600CDF830A040
:104D1000099094F82700C0F20109089094F828003F
:104D20004FF0010A079094F829000DF1340B06901A
:104D300094F82A000197059094F82B00049094F8B9
:104D40002C00039094F82D000290402084F82F004E
:104D50000C98BAF1060FC1680B98524684F82400EB
:104D60000A9884F82E8084F82500099884F8260093
:104D7000089884F82700079884F82800069884F893
:104D80002900059884F82A00049884F82B000398D9
:104D900084F82C00029884F82D00C0F08C800888DC
:104DA0005246002800F087800239524600F0010385
:104DB00043EA4203120448BF83EA0903C0F34002F6
:104DC00042EA43021B0448BF82EA0902C0F380039F
:104DD00043EA4203120448BF83EA0903C0F3C00256
:104DE00042EA43021B0448BF82EA0902C0F30013EF
:104DF00043EA4203120448BF83EA0903C0F34012A6
:104E000042EA43021B0448BF82EA0902C0F380134E
:104E100043EA4203120448BF83EA0903C0F3C01205
:104E200042EA43021B0448BF82EA0902C0F300239E
:104E300043EA4203120448BF83EA0903C0F3402255
:104E400042EA43021B0448BF82EA0902C0F38023FE
:104E500043EA4203120448BF83EA0903C0F3C022B5
:104E600042EA43021B0448BF82EA0902C0F300334E
:104E700043EA4203120448BF83EA0903C0F3403205
:104E800042EA43021B0448BF82EA0902C0F38033AE
:104E900043EA4203120448BF83EA09035A0042EA84
:104EA000D0321804888848BF82EA0902002801F13C
:104EB00002017FF47BAF072002F00F0101F1300304
:104EC000392B88BF01F13703102A0BF800304FD37C
:104ED000C2F3031101F13006392E88BF01F1370604
:104EE0000BEB0001130A01F8016C00F0C18003F024
:104EF0000F0303F13006392E88BF03F13706130B79
:104F000001F8026C00F0BE8003F00F0303F13006DD
:104F1000392E88BF03F137060438120C01F8036CF0
:104F2000CAD14FF07E010BF8001040B3424200217D
:104F3000631893F82460202E22D05618771C15D0C1
:104F400093F82570202F00F0A780B71C0ED093F89F
:104F50002670202F00F0A280F71C07D093F827308E
:104F6000202B00F09D8004315318E1D1014607E069
:104F7000013800284FF07E010BF80010D6D1002137
:104F8000072801F101029ABF1BF8003001302023ED
:104F90006718072A87F824305ED8072801F1020332
:104FA0009ABF1BF80060013020262244072B82F8AC
:104FB000246051D8072801F103029ABF1BF8006052
:104FC000013020262344072A83F8246044D8072888
:104FD00001F104039ABF1BF800600130202622442F
:104FE000072B82F8246037D8072801F105029ABF01
:104FF0001BF80060013020262344072A83F8246030
:105000002AD8072801F106039ABF1BF80060013077
:1050100020262244072B82F824601DD8072801F19E
:1050200007029ABF1BF80060013020262344072A9C
:1050300083F8246010D8072894BF1BF800002020B4
:10504000224411F1080F82F8240005D301F1080071
:105050002044202180F824102046FFF7F1F908BBF6
:105060000AF1010ABAF1640F7FF472AE1EE000BFCC
:10507000023800284FF07E010BF800107FF456AF85
:105080007DE700BF033800284FF07E010BF80010C9
:105090007FF44CAF73E700BF013171E702316FE776
:1050A00003316DE7BAF1640F40F0AE8007200FB016
:1050B000BDE8F08F3078032803D3F16A00297FF42C
:1050C00000AE3089002800F0F581F06A0027002149
:1050D0000028A161E06100F0ED8100EB57216FF342
:1050E0005F27F0193830C4E90710304602F0E4FCBD
:1050F000002800F09380042808BF0720002840F013
:10510000E380B8F1010500F0A5806069A0EB4511CE
:10511000204600F0DDF9002840F0D68094F8240005
:1051200094F82520410841EAC010104494F8261054
:10513000C0B201EBC01101EB500094F82710C0B2CF
:1051400001EBC01101EB500094F82810C0B201EB44
:10515000C01101EB500094F82910C0B201EBC0114E
:1051600001EB500094F82A10C0B201EBC01101EB22
:10517000500094F82B10C0B201EBC01101EB5000AD
:1051800094F82C10C0B201EBC01101EB500094F860
:105190002D10C0B201EBC01101EB5000C0B24108AC
:1051A00094F82E2041EAC010E16902EB00084FF6A6
:1051B000FF799BE0304602F01DFA0146013000F015
:1051C0007D8100207D02A0EB472700BF0229C0F0AF
:1051D0007181F069814280F06D81AF42FFF477AD5B
:1051E000206802F007FA01460130A7EB05074FF0EF
:1051F0000100EBD168E000BF0020C4E906100220E6
:105200000FB0BDE8F08F00BFDDF830A004285BD1FF
:105210002668019F84F82F703EE500BF002700BF7D
:10522000206A0078E52800D020B90137474502D12F
:1052300067E700BF002720460121FFF745FC002853
:105240007FF459AFE169304602F036FC0028E7D020
:1052500051E700BFE169504602F02EFCA0BB216A75
:105260000020C861886148610861C8608860486042
:105270000860216A94F824200A7094F825204A7066
:1052800094F826208A7094F82720CA7094F8282071
:105290000A7194F829204A7194F82A208A7194F8A6
:1052A0002B20CA7194F82C200A7294F82D204A728F
:1052B00094F82E208A7294F82F10226A01F01801B7
:1052C000117301218AF803100FB0BDE8F08F00BF01
:1052D0003089B0EB5B1F40F2F58006EB0A003830F6
:1052E000013DBA46C4F814B02062B4D0504602F072
:1052F000E3FB0028E8D1206A0F22DAF80C10A0F8AE
:105300000B2000224283EAB20D235A4380F80D801D
:1053100001EB420333F81A6C771CBFB2012FA0F8DF
:10532000016003D8A0F8039008E000BF33F8187CB0
:105330007E1CB6B2012EA0F8037057D8A0F80590D5
:10534000A0F80790A0F80990A0F80E90A0F810908F
:10535000A0F81290A0F81490A0F81690A0F8189059
:10536000A0F81C90A0F81E9045F040010170E16982
:1053700001208AF8030000294FF00400A4D06269DC
:1053800002F1200B4FF6FF72C0F21F0293459BD82B
:105390005746DA4626686FF35F2ABAF1000F9CD1B0
:1053A000A2690131002AE16192D070894FF6FF7342
:1053B000C0F21F03184400F5C00010EA5B2F8CD127
:1053C0003046114602F016F9022873D3411C75D0FD
:1053D000F169884276D2821E02398A42A06165D282
:1053E0007089316B02FB001161E000BF33F8167C5D
:1053F0007E1CB6B2012EA0F80570A1D933F8147C3A
:105400007E1CB6B2012EA0F807709BD933F8127C2F
:105410007E1CB6B2012EA0F8097095D933F8107C25
:105420007E1CB6B2012EC78190D933F80E7C7E1C4B
:10543000B6B2012E07827FF68BAF33F80C7C7E1C50
:10544000B6B2012E47827FF685AF33F80A7C7E1C08
:10545000B6B2012E87827FF67FAF33F8087C7E1CC0
:10546000B6B2012EC7827FF679AF33F8067C7E1C78
:10547000B6B2012E07837FF673AF33F8047C7E1C2F
:10548000B6B2012E87837FF66DAF33F8023C5F1C06
:10549000BFB2022FC383FFF467AF31F812100029A7
:1054A000294608BF45F0400160E700BF0021E161E7
:1054B00013E700BF02200FB0BDE8F08F01200FB04E
:1054C000BDE8F08F0020E06104200FB0BDE8F08F50
:1054D000F0B581B00C461F21CFF6E0710C4203D02D
:1054E000022001B0F0BD00BF816806680546446136
:1054F00071B17789B4EB472F18D2F0698A1E023850
:1055000082422DD27089336B02FB003029E000BF4C
:105510003078032802D3F16A0029EAD13089B0EB50
:10552000541FDDD9F06A00211BE000BF304602F0B5
:1055300061F80146013023D07F02E41B0229CFD35A
:10554000F0698142CCD2BC42D8D3286802F052F82C
:1055500001460130A4EB07044FF00100EED10DE04D
:1055600000200028A961E861BAD000EB54206FF355
:105570005F2431193831C5E90701002001B0F0BDC1
:10558000012001B0F0BD000040F25C61C2F20001F8
:105590000A5C002A1CBF0020704701230A180B5424
:1055A00001EB80004168107A0968084740F25C6CA2
:1055B000C2F2000C0CEB80035B686044007A1B694C
:1055C0001847000080B540F25C6CC2F2000C0CEB96
:1055D000800EDEF804E06044007ADEF808C0BDE822
:1055E0008040604740F25C61C2F2000101EB800242
:1055F00052680844007A51680847000080B540F2BC
:105600005C6CC2F2000C0CEB800EDEF804E060442F
:10561000007ADEF80CC0BDE8804060472DE9F04F0D
:1056200091B018B31A9C9B4615460F464FF0FF31B8
:1056300042185378202B1BD33A2B19D09378202B68
:105640001ED33A2B1CD0D378202B21D33A2B1FD03A
:1056500013790431A3F13A02B2FA82F25209202BF3
:1056600001D33A2BE4D14AB319E000BF0B2621E065
:10567000A3F13A02B2FA82F2520901317AB91DE07D
:10568000A3F13A02B2FA82F252090231B2B106E053
:10569000A3F13A02B2FA82F25209033172B10078F0
:1056A0003038092800F28A8001294FF00B0608BF24
:1056B000002803D0304611B0BDE8F08F40F2D4107E
:1056C000C2F20000406800281CBF002101700020C9
:1056D000FFF75AFFC1076BD1400775D410AA00200D
:1056E0000321FFF763FFD0B91098C0B1B0F5004FA8
:1056F00015D84FF0553101EA5001401A4FF03331BF
:1057000001EA900120F0CC30084400EB101020F0AA
:10571000F0304FF001314843000E022801D3012040
:105720001090FDB14FF60061A5F50070C0F2FF01C9
:1057300088424FF01306BDD84FF0553000EA5500AF
:10574000281A4FF0333101EA900120F0CC300844A0
:1057500000EB101020F0F0304FF001314843000E04
:105760000128A7D840F2FF1024EA0000D8B10E901B
:105770000FAA002001210126FFF718FF002899D168
:105780000022002017F0080308BF3F2208BF6FF077
:105790003E000F99914206D3A1EB020ABAF1800FA5
:1057A000CDF83CA016D20E26304611B0BDE8F08FE1
:1057B0000326304611B0BDE8F08F00BF0B263046FF
:1057C00011B0BDE8F08F00BF0A26304611B0BDE829
:1057D000F08F00BF6D0A802D04D91326304611B01A
:1057E000BDE8F08F17F0020606D1F90714D1132691
:1057F000304611B0BDE8F08F4FF0020C02930D92CD
:1058000007F00701FA0708BF4FF0030C022908BF91
:105810004FF0030C04E000BF4FF0020C02930D9216
:10582000610A0391002E18BF012610994FEA5A42CF
:105830004B1E49420B930A914021BAF5001F4FF0CD
:105840004003A2F10107049638BF20230793202AC2
:1058500038BF2021B7FA87F708917909B2FA82F7A1
:1058600006917909099205910C905FFA8CF7032F44
:1058700029464BD10E46002918BF0126099800275A
:1058800008284FF0000538BF0127042838BF01253C
:10589000059A0B461643002908BF0123069A002EDD
:1058A00046EA02064FF0020208BF13463543002EB7
:1058B0004FF0040208BF134645EA0706002D4FF0DB
:1058C000080208BF1346002E4FF0100208BF13460F
:1058D000089F102838BF1F46002E18BF1F46BAFB6E
:1058E000F7F50A20CFF200002B180020CFF20100BC
:1058F00083424FF00006FFF456AF40F2072000EB62
:10590000850E20254FF0030C55E000BF00290B4603
:1059100018BF0123BAF5802F4FF0000738BF0127C9
:10592000BAF5803F4FF0000638BF0126BAF5804F28
:105930004FF000054FF0000438BF0125BAF5805F35
:1059400038BF012423430124002918BF0C461D43FE
:10595000002B4FF0020008BF044645EA0603002D65
:105960004FF0040008BF044643EA0706002B4FF03F
:10597000080208BF1446002E4FF0100208BF14465C
:10598000079FBAF5801F38BF2746002E18BF27464D
:10599000BAFBF7F3032203EB4306013602EB56068C
:1059A00040F6F572012593428CBF00EB4306AC46EE
:1059B00006F2FF1E20260D9B0B9AEC1804EB5E23CB
:1059C00033443046D6180A9A4FF000091640F61AAA
:1059D0005FFA8CF2032A06EB5E2808BFB146032A61
:1059E00008BF4FEA5E280C9E06EB071633449A4523
:1059F000FFF4D9AE4D4400EB08032B44AAEB03039C
:105A0000B3FBF7F6032A034610D14FF6F570864232
:105A10000CD800294FF00E067FF44CAE7D08022F03
:105A20004FF0030CBFF421AF44E600BF022A35D18A
:105A30004FF6F670864221D3B1FA81F37C0000263E
:105A40005B09412C38BF01260498334043EA000328
:105A50004FF0030C0D461CBF4FF0020C7D00002BD5
:105A60007FF403AF00294FF00E067FF423AE4FF012
:105A7000020C812C2546FFF4F8AE1BE640F6F570CB
:105A8000864221D800294FF00E067FF413AE7D0028
:105A9000812D4FF0020CFFF4E8AE0BE64FF0FF3023
:105AA00050FA8CF0B0FA80F04009012A0B904FF0C8
:105AB0000000CDE900360CD10A9040F6F570864220
:105AC0003FF671AE06E000BF00200B900120CDE94B
:105AD00000360A90D61E0BF1130040F2ED110C9225
